:020000040800F2
:10000000E85B00209D010008C31B0008CD17000815
:10001000C11B0008EB020008E124000800000000FA
:10002000000000000000000000000000991E000811
:10003000ED02000800000000E51B00089B1E000800
:10004000B7010008B7010008B7010008B7010008B0
:10005000B7010008B7010008B7010008B7010008A0
:10006000B7010008B7010008B7010008B701000890
:10007000B7010008B7010008B7010008B701000880
:10008000B7010008B7010008B7010008B701000870
:10009000B7010008B7010008B70100081D030008F8
:1000A000B7010008B7010008B7010008B701000850
:1000B000791F0008B7010008B7010008B701000860
:1000C000B7010008B7010008B7010008B701000830
:1000D000B7010008B7010008B7010008B701000820
:1000E000EF020008B7010008B7010008B7010008D7
:1000F000B7010008B7010008B7010008B701000800
:10010000B7010008B7010008B7010008B7010008EF
:10011000B7010008B7010008B7010008B7010008DF
:10012000B7010008B7010008B7010008B7010008CF
:10013000B7010008B7010008B7010008B7010008BF
:10014000B7010008B7010008B7010008B7010008AF
:10015000B7010008B7010008B7010008B70100089F
:10016000B7010008B7010008B7010008B70100088F
:10017000B7010008B70100080000000000000000FF
:10018000B7010008B7010008DFF80CD000F06CF8E8
:100190000048004701250008E85B0020064880472A
:1001A00006480047FEE7FEE7FEE7FEE7FEE7FEE75C
:1001B000FEE7FEE7FEE7FEE7351F000889010008BD
:1001C0002DE9F05F0546002092469B46884606468C
:1001D000814640241BE0284641464746224600F01F
:1001E00032F853465A46C01A914110D31146184668
:1001F000224600F019F82D1A67EB01084F462246F7
:100200000120002100F010F817EB00094E41201EDC
:10021000A4F10104DFDC484631462A46434600F09B
:1002200000B830BCBDE8C09F202A04DB203A00FAA9
:1002300002F1002070479140C2F1200320FA03F33D
:10024000194390407047202A04DB203A21FA02F03B
:100250000021704721FA02F3D040C2F12002914000
:100260000843194670470000064C074D06E0E06859
:1002700040F0010394E8070098471034AC42F6D3ED
:10028000FFF786FF002600082026000870B58D18AD
:1002900010F8014B14F0030201D110F8012B2311C7
:1002A00006D110F8013B03E010F8016B01F8016B77
:1002B000521EF9D1ABB110F8012B04F00C048A1ACC
:1002C0000C2C03D0A2EB84129B1C08E010F8014B0D
:1002D000A2EB0422F8E712F8014B01F8014B5B1E78
:1002E000F9D5A942D4D3002070BDFEE7704710B500
:1002F0004FF4806000F036F94FF4006000F032F9FE
:100300004FF4005000F02EF94FF4804000F02AF92D
:10031000BDE810404FF4004000F024B910B5202093
:1003200000F020F9402000F01DF9802000F01AF9BB
:10033000BDE810404FF4807000F014B92DE9F0478B
:100340000446407900270E4601280BD04FF00109E2
:1003500084F8059002202071306802F0100504280E
:1003600003D043E00220BDE8F0874FF0030802BB52
:1003700000F0F4F9074604E000F0F0F9C01B012892
:100380000FD82068406B0004F6D4012000F0DBF8A1
:100390002168B069086416E000F0E0F9C01B01288C
:1003A00007D9206940F00800206184F80480032008
:1003B000D9E72068406B0028EEDB012000F0C3F88D
:1003C0002168B06948642068816C40F2FF32AA401D
:1003D0009143F269AA40114381642068C16CFF22F5
:1003E000AA409143326AAA401143C164306901288E
:1003F00008D12268916B1F20A84081437069A840F2
:10040000084390632268D16B0720A8408143B368FA
:1004100030681843F3681843A8400843D063206845
:1004200001684FF48042AA4091430160226811683C
:1004300040F6FC70A84081437068A84008431060F3
:1004400020680168C022AA409143016084F80490AA
:100450000020607187E770B5040003D02079002583
:1004600010B105E0012070BD6571204600F008F86C
:1004700002202071256101202071002070BD000044
:1004800030B50068114987B088421DD11048816D90
:1004900041F000518165806D002400F0005005900E
:1004A000102000900B20CDE901044FF090456946E3
:1004B000284600F063F8202000900320CDE90104D5
:1004C0006946284600F05AF807B030BD0074004075
:1004D0000010024018B5046800940068104421B16F
:1004E000143000900360002018BD0830F9E770B5A3
:1004F0004279012A14D00122427102230371036858
:100500001D6801F0100602FA06F425431D6000295B
:1005100001680B6806D0C3F38343012B0AD00DE0BA
:10052000022070BDC3F38303012B07D14B6843F056
:10053000010302E04B6843F002034B6002710021AB
:100540004171084670BD70B5044600F007F90546D4
:10055000601C00D0641C00F001F9401BA042FAD3DB
:1005600070BD7047044910B50A68024202D00860A5
:10057000FFF7F7FF10BD0000140401402DE9F84F0C
:10058000DFF898B100234FF0010C4FF0030A4FF051
:100590000F090BF1040EB9E00CFA03F4224070D0FD
:1005A0004D68022D01D0122D0ED1DD0800EB85081B
:1005B000D8F820505E07F70E09FA07F6B5430E6922
:1005C000BE402E43C8F8206007685E0091F80480A2
:1005D0000AFA06F508F00308AF4308FA06F848EAF5
:1005E0000708C0F800804F68012F05D0022F03D004
:1005F000112F01D0122F13D1D0F80880CF6828EA2C
:100600000508B74047EA08078760D0F804800F79EB
:1006100028EA0408C7F300179F4047EA0807476025
:10062000D1F804806FEA0807BF0706D1C76AA7435D
:10063000C8F3C0049C403C43C462C468AC438D68AA
:10064000B5402543C5604C68E4005ED5344C256E4A
:1006500045F001052566246E23F0030504F001042E
:100660000094304C2E19B4689D072F0F09FA07F536
:10067000AC43B0F1904F05D02B4DA84204D10125D9
:100680001CE042E0002519E0284DA84201D10225D6
:1006900014E0274DA84201D103250FE0254DA842C3
:1006A00001D104250AE0244DA84201D1052505E029
:1006B000224DA84201D1062500E00725BD40254373
:1006C000B560DBF800405D464E689443F60300D504
:1006D00014432C60DEF8004075464E689443B60320
:1006E00000D514432C600D4D08352C684E6894439A
:1006F000F60200D514432C60084D0C352C684E686A
:100700009443B60200D514432C605B1C0A6832FA8D
:1007100003F57FF441AF00F013B80000000401407E
:10072000001002400000014000040048000800489A
:10073000000C004800100048001400480018004851
:1007400018BCBDE8E08F0069084000D00120704768
:100750000AB18161704781627047000001480068FA
:10076000704700001057002002480168491C0160D2
:10077000704700001057002010B50024032000F03F
:100780008FF8002000F008F808B1012401E000F023
:100790001BF8204610BD000070B5054609484FF40F
:1007A0007A7100240068B0FBF1F000F0E6FD08B1BA
:1007B000012404E000222946501E00F051F8204692
:1007C00070BD0000145700201E4808B5016E41F0AE
:1007D00001010166016E01F001010091816D41F09E
:1007E00080518165806D00F080500090032000F002
:1007F00057F8002211466FF00B0000F031F800228C
:1008000011466FF00A0000F02BF8002211466FF03D
:10081000090000F025F800221146501F00F020F8D2
:1008200000221146101F00F01BF800221146901EF6
:1008300000F016F80022BDE808401146501E00F0F6
:100840000FB800000010024000F01F02012191408B
:100850004009800000F1E020C0F80011704700005E
:10086000F0B40E4B1B680C46C3F30223C3F107051B
:10087000042D00D90425191D072901D2002300E009
:10088000DB1E012606FA05F1491E214099409E40D3
:10089000761E16403143F0BC01F094B90CED00E037
:1008A000064900F0070208684FF6FF03184040EAC7
:1008B0000220034A10430860704700000CED00E07E
:1008C0000000FA051649B0F5007F0868C0F3412022
:1008D00009D0022805D0086820F4C06040F4806088
:1008E0000860002070470128FBD0086820F4C06031
:1008F00040F4007008600B483222006850430A4AF6
:10090000B0FBF2F0401C00E0401E4A69520501D5E0
:100910000028F9D148694005E3D50320704700005D
:10092000007000401457002040420F000248006849
:1009300000F4C06070470000007000402DE9F84FDF
:10094000044600270088E54D3E46010504F1200BD2
:100950001DD5606E78B1B0F5800F11D0B0F5000FE5
:1009600004D0B0F5400F22D001270FE0E86840F432
:100970008030E8601BE00021201D01F035F903E024
:100980000021584601F0C6F9070010D03E462088E5
:10099000C00426D5A06EC0B1B0F1807F1AD0B0F1EE
:1009A000007F0DD0B0F1407F19D0012718E0D5F8B5
:1009B0008800616E20F440000843C5F88800E6E72F
:1009C000E86840F48030E86009E00021201D01F073
:1009D0000BF903E00021584601F09CF90746F7B1F6
:1009E0003E46206880033AD5A86D4FF00008C0004D
:1009F00009D4A86D40F08050A865A86D4FF001089B
:100A000000F080500090DFF8D8A2DAF8001041F42E
:100A10008071CAF80010FFF7A1FE814610E0D5F8FA
:100A20008800A16E20F040700843C5F88800D8E720
:100A3000FFF794FEA0EB0900022801D9032705E087
:100A4000DAF80000C005F3D5002F7CD04FEA070686
:100A5000B8F1000F03D0A86D20F08050A865207871
:100A6000C00707D0D5F88800A16B20F00300084329
:100A7000C5F888002078800707D5D5F88800E16B95
:100A800020F00C000843C5F888002078400707D5FF
:100A9000D5F88800216C20F030000843C5F88800A4
:100AA0002078000707D5D5F88800616C20F0C000D9
:100AB0000843C5F888002078C00607D5D5F8880017
:100AC000A16C20F440700843C5F8880020788006A7
:100AD00007D5D5F88800E16C20F440600843C5F8DC
:100AE00088002088800507D5D5F88800E16D20F4BE
:100AF00040200843C5F888002088400507D5D5F870
:100B00008800216E20F440100843C5F88800207842
:100B1000400607D5D5F88800216D20F440500843E1
:100B2000C5F888002078000607D5D5F88800616DE3
:100B300020F440400843C5F888002088C00509D546
:100B4000D5F8880000E01CE0A16D20F44030084397
:100B5000C5F8880020884FF0006780044FF0806857
:100B60004FD5D5F88800E16E20F040600843C5F805
:100B70008800E06EB8423CD1E86840F48010E8603C
:100B80003FE0D5F8900010F4407015D0D4F88410F0
:100B9000814211D0D5F89000D5F8901020F4407023
:100BA00041F48031C5F89010D5F8901021F48031CF
:100BB000C5F89010C5F89000C00710D0FFF7CEFD23
:100BC000074641F2883906E0FFF7C8FDC11B4945D9
:100BD00001D903263CE7D5F890008007F4D5D5F875
:100BE0009000D4F8841020F440700843C5F89000B9
:100BF0002EE7404505D10121201D00F0F5FF00B191
:100C000006462068000317D5D5F88800216F20F02C
:100C100040600843C5F88800206FB84204D1E868F6
:100C200040F48010E86007E0404505D10121201D17
:100C300000F0DAFF00B106462068400317D5D5F86A
:100C40008800616F20F040600843C5F88800606F3D
:100C5000B84204D1E86840F48010E86007E04045FD
:100C600005D10121201D00F0BFFF00B106462088FC
:100C700040041AD5D5F88800A16F20F040500843F1
:100C8000C5F88800A06FB0F1805F03D0B0F1005FBD
:100C900005D00AE00221201D00F0A6FF03E002219A
:100CA000584601F037F800B106462088000407D501
:100CB000D5F88800E16F20F080400843C5F888002F
:100CC0002068C00307D555F8880FD4F8801020F0AD
:100CD000004008432860304600F004B8001002408D
:100CE0000070004018BCBDE8E08F00002DE9F0471F
:100CF0000F46050058D03F4E306800F00700B8425C
:100D000009D2306820F0070038433060306800F0C6
:100D10000700B84248D12878374CC0072CD0686803
:100D2000032811D0022812D0216898B14905002962
:100D30003ADAA16821F003010143A160FFF70EFD3B
:100D4000804641F2883910E021688901EFE7216887
:100D50008903ECE78907EAE7FFF700FDA0EB08014C
:100D6000494502D90320BDE8F087A068696800F012
:100D70000C00B0EB810FEFD12878800705D5A06873
:100D8000A96820F0F0000843A060306800F0070078
:100D9000B8420BD9306820F0070038433060306823
:100DA00000F00700B84201D00120DCE728784007B6
:100DB00005D5A068E96820F4E0600843A0602878C1
:100DC000000706D5A068296920F4605040EAC100F8
:100DD000A06000F041F8A168084AC1F30311515C1A
:100DE00001F01F01C84006490860BDE8F047002037
:100DF000FFF7D2BC0020024000100240B8250008D6
:100E00001457002001480068704700001457002064
:100E10000548064900688968054AC1F30221515C0A
:100E200001F01F01C8407047145700200010024015
:100E3000F82500080548064900688968054AC1F395
:100E4000C221515C01F01F01C840704714570020B7
:100E500000100240F825000870B525490023184607
:100E60008A68CC6812F00C0204F00306214C4FEAA9
:100E7000640509D00C2A05D0042A26D0082A00D1FE
:100E8000284670BD012E10D10B681B0704D4D1F881
:100E90009430C3F3032302E00B68C3F30313164E2D
:100EA00056F823307AB10C2AEBD1C86800F003025F
:100EB000C868C0F30210401C022A08D0032A09D0D7
:100EC000B3FBF0F008E0184670BD204670BDB4FBDF
:100ED000F0F001E0B5FBF0F0CA68C968C2F3062281
:100EE0005043C1F34161491C4900B0FBF1F070BDB2
:100EF000001002400024F400C82500082DE9F84342
:100F000005007CD0FD4CA06800F00C06E06800F005
:100F100003072878C00661D576B10C2E01D1012FC8
:100F20000AD0A8690028206878D040F0010020602D
:100F3000FFF714FC804659E02068800702D5A869B5
:100F40000028DED0286A2168090703D5216801F04E
:100F5000F00104E0D4F89410F02202EA1111884262
:100F600015D900F05BFF002849D1206840F0080047
:100F700020602068296A20F0F00008432060606843
:100F8000E96920F47F4040EA0120606015E02068B4
:100F900040F0080020602068296A20F0F000084333
:100FA00020606068E96920F47F4040EA01206060C9
:100FB000286A00F033FF0028D6D1FFF74DFFA16863
:100FC000CF4AC1F30311515C01F01F01C840CD4964
:100FD00008600020FFF7E0FB00287DD12FE000BF74
:100FE000FFF7BCFBA0EB0800022876D8206880073A
:100FF000F6D5206840F008002060206801E0BBE0E2
:101000000CE0296A20F0F000084320606068E9697C
:1010100020F47F4040EA0120606010E020F00100F1
:101020002060FFF79BFB804606E000BFFFF796FBC2
:10103000A0EB08000228D8D820688007F6D42878CA
:10104000C00740D0082E18D00C2E01D1032F14D089
:101050006868B0F5803F17D0B0F5A02F206817D092
:1010600020F480302060206820F4802020606868B0
:10107000E0B1FFF773FB804614E02068800322D5BF
:101080006868002878D01EE0206840F48030EDE7E2
:1010900040F480202060F7E7FFF760FBA0EB08003A
:1010A0006428A2D820688003F6D50CE0FFF756FB31
:1010B000804605E0FFF752FBA0EB0800642894D8B7
:1010C00020688003F6D4287880073BD5042E11D001
:1010D0000C2E04D1022F01E036E1A1E00AD0E8682D
:1010E000002820681ED040F480702060FFF736FB97
:1010F00007460CE0206840050CD5E8680028C1D000
:1011000008E000BFFFF72AFBC01B022893D8206825
:101110004005F7D56068297C20F0F85040EA01606E
:1011200060600FE020F480702060FFF717FB074637
:1011300005E000BFFFF712FBC01B022870D8206833
:101140004005F7D42878000729D568690028D4F825
:10115000940012D040F00100C4F89400FFF7FEFAAA
:10116000074604E0FFF7FAFAC01B022858D8D4F863
:1011700094008007F6D512E0EDE020F00100C4F8FD
:101180009400FFF7EBFA074605E000BFFFF7E6FA29
:10119000C01B022844D8D4F894008007F6D42878DD
:1011A000400768D5A06D0027C00008D4A06D40F0AE
:1011B0008050A065A06D012700F08050009052483B
:1011C0000168C90512D40168814641F4807101604B
:1011D000FFF7C4FA804605E0FFF7C0FAA0EB08006D
:1011E00002281DD8D9F80000C005F5D5A868012847
:1011F00017D00528D4F8900018D020F00100C4F8CA
:101200009000D4F8900020F0040000BFC4F89000D3
:10121000A86841F28839D0B1FFF7A0FA804611E002
:101220006BE0D4F8900040F00100EFE740F00400DC
:10123000C4F89000F5E700BFFFF790FAA0EB0801B3
:1012400049455AD8D4F890008007F5D50EE0FFF74D
:1012500085FA804606E000BFFFF780FAA0EB0801A0
:10126000494570D8D4F890008007F5D41FB1A06D1F
:1012700020F08050A065A86AF0B30C2E6BD0022835
:10128000206820F08070206004D0206810F0205F7B
:1012900047D04AE0FFF762FA064604E0FFF75EFA3D
:1012A000801B02284FD820688001F7D4286BE96A98
:1012B000000110380843696BAA6B0902120941EA60
:1012C00042410843A98F114A490802EB41510843A2
:1012D00095F840104908120102EB41610843E060B3
:1012E000206840F080702060E06840F08070E0602E
:1012F000FFF734FA054610E02BE024E0001002402E
:10130000B825000814570020007000400000E0FFDE
:10131000FFF724FA401B022815D820688001F7D572
:1013200017E0E06820F00300E060E0680B49084047
:10133000E060FFF713FA054608E000BFFFF70EFA7A
:10134000401B022802D90320BDE8F88320688001F1
:10135000F4D40020F8E70120F6E70000FFFFEEFEDE
:101360004FF0E0210428086903D020F00400086150
:10137000704740F00400FAE7704710B5401EB0F126
:10138000807F01D3012010BD4FF0E02460610F2168
:10139000601700F017FC0020A061072020610020EA
:1013A00010BD10B5FFF7E8FF10BD704770477047DC
:1013B00070B590F83C20012A24D0012480F83C40EC
:1013C000022280F83D200268536895680E4EB242B2
:1013D00002D00E4EB24203D123F470064B68334361
:1013E00023F070060B688968334325F08005294394
:1013F00053600268916080F83D40002180F83C1005
:10140000084670BD022070BD002C01400034014030
:1014100010B5040003D094F83D0010B107E001209E
:1014200010BD002084F83C00204600F00DF802209A
:1014300084F83D00211D206800F0A8FD012084F8FB
:101440003D00002010BD000000B5006887B0B0F17D
:10145000804F1ED11048816D41F001018165806D82
:10146000694600F0010005900820009002200190DC
:10147000002002900390012004904FF09040FFF76D
:101480007DF8002211461C20FFF7EAF91C20FFF727
:10149000DBF907B000BD00000010024070B5044643
:1014A00090F83C00012817D0012584F83C50022018
:1014B00084F83D0020688268324E324022F47F4238
:1014C00082600868502839D00DDC202855D005DC12
:1014D00098B3102843D150E0022070BD30284CD082
:1014E00040283CD141E0602830D070280CD0B0F5C5
:1014F000805F03D0B0F5005F31D112E020688168D1
:10150000204A7032114016E0CB68D1E901212068F1
:1015100000F09CFD21688868304040F077008860CA
:101520001DE0CB68D1E90121206800F08FFD206823
:10153000816841F48041816011E01EE0CA68496819
:10154000206800F095FD5021206806E0CA684968CF
:10155000206800F09EFD6021206800F081FD84F885
:101560003D50002084F83C0070BDCA68496820687E
:1015700000F07EFD40212068EFE72268014610461A
:10158000EBE7000088FFFEFF704770B50446006877
:1015900001694FF00005C943890715D4C168C943E3
:1015A000890711D4E91E0161012020772068806934
:1015B0008007204602D0FFF7E7FF04E000F0A7F81D
:1015C000204600F0A5F8257720680169C94349073E
:1015D00017D4C168C943490713D46FF004010161EE
:1015E000022020772068806910F4407F204602D0D6
:1015F000FFF7CAFF04E000F08AF8204600F088F800
:10160000257720680169C943090716D4C168C94311
:10161000090712D46FF008010161042020772068C7
:10162000C0698007204602D0FFF7AEFF04E000F05B
:101630006EF8204600F06CF8257720680169C943F0
:10164000C90617D4C168C943C90613D46FF0100185
:101650000161082020772068C06910F4407F20468F
:1016600002D0FFF791FF04E000F051F8204600F0AF
:101670004FF8257720680169C943C90708D1C168B7
:10168000C943C90704D1891E0161204600F041F811
:1016900020680169C943090609D4C168C94309061C
:1016A00005D46FF0800101612046FFF77FFE2068BE
:1016B0000169C943C90509D4C168C943090605D4EC
:1016C0006FF4807101612046FFF76FFE20680169A9
:1016D000C943490609D4C168C943490605D46FF016
:1016E00040010161204600F015F820680169C943F6
:1016F00089060BD4C168C943890607D46FF020015D
:1017000001612046BDE87040FFF751BE70BD7047D3
:1017100070477047704710B5040003D094F871000B
:1017200010B107E0012010BD002084F870002046B1
:1017300000F026F8242084F871002068016821F068
:1017400001010160204600F049FD0128EBD0606AEC
:1017500010B1204600F0AFFC2068416821F49041B0
:1017600041602068816821F02A0181602068016859
:1017700041F0010101602046BDE8104000F0FFBCCF
:1017800000B500680E4987B0884216D10D48016E39
:1017900041F480410166006E694600F48040059086
:1017A000C0200090022001900020029003200390AE
:1017B000072004900448FEF7E1FE07B000BD0000DA
:1017C000003801400010024000040048FEE700001D
:1017D00010B511498AB00F4808600846FEF73BFE75
:1017E00000B1FEE700240094019402940394224681
:1017F000694609480494FEF7A1FD00B1FEE71022F6
:10180000694605480394FEF799FD002800D0FEE7DD
:101810000AB010BD00740040185700202DE9F04FA9
:10182000BB4887B0C16C41F01001C164C16C01F0CC
:1018300010010591C16C41F00401C164C16C01F05B
:1018400004010591C16C41F00101C164C16C01F05A
:1018500001010591C16C41F00201C164C16C01F04C
:1018600002010591C16C41F00801C164C06C002205
:1018700000F00800059040F21511A648FEF768FF39
:10188000002248F204114FF09040FEF761FF002261
:101890004FF23401A048FEF75BFF002243F28101C2
:1018A0009E48FEF755FF00224FF410719C48FEF74A
:1018B0004FFF40F21510009001200024CDE90104F3
:1018C000694694480394FEF759FE964D6A20CDE987
:1018D0000005694602948F48FEF750FE4FF4005011
:1018E00000909148CDE9010469468D48FEF746FE17
:1018F0003F200B26CDE90006694602948848FEF792
:101900003DFE032000900220CDE901040320039056
:101910000820049069464FF09040FEF72FFE48F2F1
:10192000041000900120CDE9010469464FF0904079
:101930000394FEF723FE1020CDE9000669460294C9
:101940004FF09040FEF71AFEC02000900220CDE933
:101950000104032003900520049069464FF0904055
:10196000FEF70CFE0120CDE90005694602946A48A5
:10197000FEF704FE0220CDE900066946029466489F
:10198000FEF7FCFD4FF2340000900120CDE9010488
:10199000694661480394FEF7F1FD4FF42070009012
:1019A0000220CDE901040626CDE9034669465948DF
:1019B000FEF7E4FD4FF47C4000900220CDE90104E5
:1019C00003204FF00A08CDE9030869465148FEF7A5
:1019D000D5FD70024FF01209CDE9000901200290F7
:1019E00003204FF0040ACDE9030A69464A48FEF78E
:1019F000C5FD4FF4407B0220CDF800B0CDE90104D5
:101A000003200727CDE9030769464448FEF7B6FDE2
:101A10004CF60440CDE90005694602943F48FEF7C4
:101A2000ADFD43F2810000900120CDE9010469463B
:101A30003A480394FEF7A2FD4FF410700090012085
:101A4000CDE90104694636480394FEF797FDB001DD
:101A5000CDE90005694602943148FEF78FFD4FF449
:101A60000070CDE9000469464FF090400294FEF703
:101A700085FDBD0202200095CDE901040320CDE9DA
:101A8000030869464FF09040FEF778FD022000956C
:101A9000CDE901040320CDE9030669462048FEF79D
:101AA0006DFD02200090CDE9010403200390052084
:101AB000049069461948FEF761FD782000900220E5
:101AC000CDE901040320CDE9030769461348FEF779
:101AD00055FD0120CDF800B0CDE901900320CDE9FE
:101AE000030A69460C48FEF749FD002211461720FB
:101AF000FEF7B6FE1720FEF7A7FE002211462820AB
:101B0000FEF7AEFE2820FEF79FFE07B000F00EB8ED
:101B1000001002400010004800040048000C00487B
:101B200000080048000011100000211030BCBDE882
:101B3000C08F000010B5134888B04FF0804101609D
:101B400014210024C0E901144FF4FA71C0E9031410
:101B50008461FFF75DFC00B1FEE74FF48050039015
:101B600003A90848FFF79AFC00B1FEE70094694614
:101B700004480294FFF71CFC002800D0FEE708B0E0
:101B800010BD00002C5700200C4810B50A49016018
:101B90004FF4E1314160002181600C22C160C0E955
:101BA00004128161C16101624162FFF7B4FD002846
:101BB00000D0FEE710BD0000003801406C57002047
:101BC000FEE770470907090E002806DA00F00F004B
:101BD00000F1E02080F8141D704700F1E02080F84B
:101BE00000147047704700002DE9F041444C054651
:101BF0008846E0680026810728680DD0E16801F07A
:101C00000301814216D1A8B1E0686968C0F30210EF
:101C1000401C88420ED120E0012804D0022805D0C3
:101C2000032807D108E02168890701E021684905F8
:101C3000002907DB01265FE02168890302D42168BF
:101C40004903F5E7E1686A686FF00F0321F073015B
:101C500003EB021211430143E160206820F0806031
:101C60002060FEF77BFD074605E000BFFEF776FD2E
:101C7000C01B022837D820680001F7D4B8F1000F44
:101C800018D0B8F1010F1ED0287D4FF07E414008DA
:101C900001EB4060A96840EA01202169194A11401E
:101CA00008432061206840F080602060FEF756FD08
:101CB00007461AE0A868E9680002090940EA4140BD
:101CC0002169114AEBE7288A1049400801EB40508E
:101CD000A96840EA012021690D4AE0E7FEF73EFDD0
:101CE000C01B022801D9032606E020680001F5D5B3
:101CF0002069A969084320613046BDE8F0810000F1
:101D000000100240FF80FFF9FF80FDFF0000E0FFB0
:101D1000FF809FFF2DE9F0413D4C06468846E06874
:101D20000025810730680DD0E16801F00301814290
:101D300016D1A8B1E0687168C0F30210401C884257
:101D40000ED120E0012804D0022805D0032807D1B5
:101D500008E02168890701E021684905002907DBBF
:101D6000012551E02168890302D421684903F5E780
:101D7000E16872686FF00F0321F0730103EB021248
:101D800011430143E160206820F080502060FEF79D
:101D9000E5FC074605E000BFFEF7E0FCC01B02289B
:101DA00029D820688000F7D4B8F1000F15D0307C16
:101DB0004FF07E41400801EB4060B16840EA0120ED
:101DC0006169144A114008436061206840F0805006
:101DD0002060FEF7C3FC07460FE0B068F168000220
:101DE000090940EA414061690B4AEBE7FEF7B6FC9E
:101DF000C01B022801D9032506E020688000F5D524
:101E000060697169084360612846BDE8F08100009F
:101E100000100240FF80FFF9FF80FDFFF8B51C4D68
:101E200006460024A86DC00002D5FEF77FFD0DE038
:101E3000A86D40F08050A865A86D00F0805000901B
:101E4000FEF774FDA96D21F08051A965B0F5007F02
:101E500004D0802E07D94FF003040AE0802E08D961
:101E6000A02E01D804E001D1022402E0702E00D19E
:101E700001240848016821F007012143016000683E
:101E800000F00700A04201D00120F8BD0020F8BDFD
:101E90000010024000200240704710B5FEF764FCBD
:101EA000BDE81040FFF77DBA30B5B9B0102001246D
:101EB0000090002506946020CDE9075002202821DB
:101EC000CDE90A04CDE90C410721CDE90E101090AF
:101ED0006846FFF713F800B1FEE70F2033900320A8
:101EE000CDE934053695042133A83795FEF7FEFE7B
:101EF00000B1FEE711A81F951194FEF71FFD00B178
:101F0000FEE74FF40070FEF7DDFC00B1FEE7FEF7E0
:101F100079FF4FF47A71B0FBF1F0FFF72EFA04204D
:101F2000FFF71EFA00221146501EFEF799FC39B049
:101F300030BD00000D48016841F4700101600C489B
:101F4000016841F001010160002181600268094BD4
:101F50001A4002608214C260026822F48022026089
:101F600081610249C00380390860704788ED00E054
:101F700000100240FFFFF6EA024901200860024813
:101F8000FFF703BB0C5700202C5700202DE9F0472A
:101F90000268264B264D274E274F284C4FF0804A8B
:101FA000984209D0504507D0A84205D0B04203D08E
:101FB000B84201D0A04204D122F0700C4A6842EA33
:101FC0000C02DFF87CC0DFF87C80DFF87C90984260
:101FD0000FD050450DD0A8420BD0B04209D0B84226
:101FE00007D0A04205D0604503D0404501D0484508
:101FF00003D122F44075CA682A434D6922F0800259
:102000002A4302608A68C2620A688262984207D0E4
:10201000A04205D0604503D0404501D0484501D1DC
:102020000969016301214161BDE8F087002C01408D
:102030000004004000080040000C00400034014053
:1020400000400140004401400048014010B5846850
:1020500042EA032224F47F440A432243826010BDF3
:10206000826822F070020A4342F0070181607047E3
:1020700010B5036A046A24F001040462846924F040
:10208000F00444EA021423F00A020A438461026263
:1020900010BD10B5036A23F0100303628369046A5C
:1020A00023F4704343EA023224F0A00343EA01110F
:1020B0008261016210BD90F82410C90706D0016842
:1020C0004A68836A22F400321A434A6090F8241066
:1020D000890706D501684A68C36A22F480321A4328
:1020E0004A6090F82410490706D501684A68036BD6
:1020F00022F480221A434A6090F82410090706D57A
:1021000001684A68436B22F400421A434A6090F81F
:102110002410C90606D501688A68836B22F48052B0
:102120001A438A6090F82410890606D501688A68E7
:10213000C36B22F400521A438A6090F824104906B7
:1021400011D501684A68036C22F480121A434A6070
:10215000016CB1F5801F06D101684A68436C22F416
:10216000C0021A434A6090F82410090606D5016897
:102170004A68806C22F4002202434A607047F8B536
:10218000002604464667FEF7E9FA0546206800681F
:102190006FF07E47000708D52B4600224FF4001150
:1021A0002046009700F06AF960B92068006840078F
:1021B0000AD52B4600224FF480012046009700F0FC
:1021C0005DF908B10320F8BD202084F8710084F87F
:1021D000720084F870600020F8BD00002DE9F04125
:1021E0000446016880682369E6691843636910251D
:1021F000002733431843954A0B68954E33400343F9
:102200000B6020684168E36821F440511943416044
:102210002168A069914201D0236A18438B6823F496
:10222000306303438B608B4B21688B4899420DD1FF
:10223000D0F8880010F0030006D001285AD00228F8
:1022400056D0032859D157E0012556E0834B9942D7
:102250000BD1D0F8880010F00C0047D0042849D0EA
:10226000082845D00C2848D146E07D4B99420BD137
:10227000D0F8880010F0300038D010283AD020284C
:1022800036D0302839D137E0764B99420BD1D0F88F
:10229000880010F0C00029D040282BD0802827D0FB
:1022A000C0282AD128E0704B99420ED1D0F888007E
:1022B00010F440701AD0B0F5807F1BD0B0F5007FCD
:1022C00016D0B0F5407F18D116E0914215D1D0F864
:1022D000880010F4406009D0B0F5806F0AD0B0F5E6
:1022E000006F05D0B0F5406F07D105E0002504E090
:1022F000022502E0042500E008255C4B00264FF48F
:10230000004091423DD135B1022D07D0042D07D0B8
:10231000082D10D107E0FEF77BFD03E0184602E030
:10232000FEF79AFDA8B3626802EB4201814202D82F
:10233000B0EB023F01D9012775E0DFF834815DB1D0
:10234000022D0CD0042D13D0082DF4D150082905EE
:10235000401846F1000105E0FEF75AFD0AE050087A
:102360004449F5E70023FDF72BFFA0F5407156E047
:10237000FEF772FD6268010E0302500818187141E1
:10238000F0E7E1694FF6EF7881422FD1092DD2D2E3
:1023900000E048E0DFE805F0060920052305050513
:1023A0002600C8E7FEF734FD01E0FEF743FD4100DB
:1023B000D4F8040001EB5001B1FBF0F080B2A0F1C1
:1023C00010014145B7D84FF6F0710140C0F342000B
:1023D00001432068C16026E027496068EAE7FEF70C
:1023E0003BFDE4E74FF480316068E3E7092DA2D2BA
:1023F000DFE805F006091E052205050525009AE718
:10240000FEF706FD01E0FEF715FD0146606801EBF1
:10241000500100BFB1FBF0F080B2A0F110014145C6
:1024200089D82168C860266638466666BDE8F081AE
:10243000606803EB5001EDE7FEF70EFDE5E761682C
:1024400000EB5100B0FBF1F0E6E700000080004037
:10245000F369FFEF003801400010024000440040E3
:1024600000480040004C0040005000400024F400B0
:10247000FFFC0F00000024F40048E8012DE9F041C2
:10248000984617460E460446069D1DE0681C1BD064
:102490002DB1FEF763F9A0EB0800A84214D920681B
:1024A000016821F4D07101602068816821F0010188
:1024B0008160202084F8710084F87200002084F884
:1024C00070000320BDE8F0812068C06936EA000092
:1024D00004D00020B842D9D00020F3E70120F9E76A
:1024E000FEE702E008C8121F08C1002AFAD17047AF
:1024F0007047002001E001C1121F002AFBD1704784
:10250000FEF73AF9FFF7D0FCFFF788F9FFF73CFB3D
:10251000FFF710FBFFF75CF900212348FDF7E7FF09
:1025200010212148FDF7E3FFDFF88090DFF880B04D
:102530004FF400584FF4804A41464846FEF703F9ED
:1025400001281FD0012251465846FEF701F9194EC5
:102550000024351D41F2C25701203460FDF7F3FF1E
:10256000002255F8243011460F48FDF7B3FF55F807
:102570002430002210210C48FDF7ACFF641CBC4243
:10258000EAD3D9E7002251465846FEF7E1F8002386
:102590001A4619460448FDF79DFF00231A461021EC
:1025A0000148FDF797FFC7E71857002000080048CB
:1025B00000040048000000200000000000000000AF
:1025C0000102030406070809A0860100400D03006C
:1025D000801A060000350C0040420F0080841E0067
:1025E00000093D0000127A000024F40000366E015C
:1025F0000048E801006CDC02000000000102030456
:102600002026000800000020185700008C02000857
:102610002040000818570020D0040000F2240008D1
:10262000220001C2020452080443F401042114D21E
:10263000042443FC01046130211443F80104212CDB
:1026400052144443EC0104A128A14492082C2140D7
:1026500052F058D20458E11452FC9C612CA1A012F3
:102660000C8092102892F0580112E80112D49200C6
:10267000D46500920CB8614492041061A006110464
:1026800024D2043C0211044CA154011A40051278D2
:10269000E1DCE5B0011604E1BCA5980619047C054F
:1026A000122C6148A104051258C7FC0158E56801C5
:1026B00026C4E554D608800912C0A5D0E5B0091695
:1026C000E461600116F40512E80D165403061500C6
:1026D000F80E110420030619085CE988655487F494
:1026E00001B461085EF4000396F478011A840611BF
:1026F00008209E040403D60C342D70031E24EC0322
:1027000012380412300C122004121C0C122814521D
:1027100034085E0C500412E40412DC0412C80412E3
:10272000AC04129804528C04210C12A41812A82094
:1027300012B02852D0D4521C6061501E4858041266
:102740005804525060611C5E284C04216C1E4C7C65
:102750000412940452902C523834128004526CA407
:1027600052D06C52A08812740412387012140812DD
:102770002410925C981294B44FB801580412644823
:10278000127808525C04216412C80412C060127CE2
:10279000705254A45E38040512C0401290E852886A
:1027A000EC52785C125814527CF056C0142520521A
:1027B00020585268E421CC12607452746C2ED430CC
:1027C000051E035C05115C12A41852707852900C1F
:1027D0002DB8035284CC21045244D01ADCD712B055
:1027E0000412D4085240F856B07447C401241EB4F1
:1027F000B40512D858529C80268C281DC80556DC7A
:102800003C2D140456D4C412CCD416803412340493
:10281000162C405668285690D05AB480291C523C39
:10282000CC52785C569488524C181AA0341218D4A2
:10283000432C037061FC25B05698BC56C8A0120CFE
:10284000705228D825AC12B8D8439000E025C45A5D
:10285000D43C5AB4705268C052DCD056583452A09E
:102860001021A05AB48029745AE8145230605A6C6E
:10287000B45A00345EB0D40656582025A85A2C64A9
:1028800061E05E608404214C25A01248D81678B41B
:102890005AE8C05A4434430C038852BCD812FCC4D2
:1028A00056484C2A042C11D4435000E41670C45AE4
:1028B000D8885A70B4253C1EF45C035AF0D85A14D8
:1028C0008056D4B425785694A82D0C075E449407FE
:1028D0005244705E6C200725D85AC41425D85A2853
:1028E000C85E4460035E14DC035A54985A40DC5AB4
:1028F0001CF82294C84203885A50AC25D0123CE000
:102900004784024416C8A412F4C81254B82E4C00CE
:102910000419882A2C8C19944BD0003429545A9CC1
:102920004C2D380325A01220585EF8C8035E107C99
:102930000356004C2DC8035A78785610CC5694484C
:1029400025405E8474049ED060042D68089E3CA4DB
:10295000035A3C145E6C6403526CFC5A38A41A246B
:102960009422B4C8199C5EC4800421984F14038833
:102970000325FC2A20702D4C0915BC5E601403123F
:1029800094E01624D01244F847F0005C56C88C5EE0
:102990004CF4035294485ECC28055E00A4045E0803
:1029A000080321102D24048FBC014805251C25484F
:1029B000522C1829685ED8500529FC5E2C9C045ABC
:1029C0005068D25CD85644C05E404004299C168CA6
:1029D000AC1230085E88900356B8785ED0F0035E83
:1029E000F860035E44C004393C15BC1630B8438817
:1029F00000F056A4BC25E01E50CC0452E0E05EE49A
:102A000088055218045A94B05EA424035AACD852D4
:102A100004C82D48045E4028055AC01452B8DC5E34
:102A2000185C056DF8055E5020046D74035A28A8E3
:102A30005E603C045EBC64034F34036C0352BC8094
:102A40005EB0D8045E9C9C065E70F8055E10F803CC
:102A50002E1C14051D74035A5CA02D38055A509C79
:102A600025E05E201804216C52CC685E445806258F
:102A70004429B05EEC94036DDC0A5E04040756C47E
:102A80002C5E8CC8035E6C0C075E0050035EE83C55
:102A9000056D3C045EC4A8045E2000035E6C7403F4
:102AA0005EACA4052D60031E0460041E5C70034729
:102AB0003803BC5E60E40456ACE42D280322645461
:102AC000198C4FE40040055238E45A3CA821E45EDA
:102AD0004CA0065E3C64055E9418065E9C30055270
:102AE000900852C0985EAC78065E6854075ECC5081
:102AF0000692B4E85E7014035694E86D380B5E14C9
:102B0000A0049E64E8055EAC84069E8C480752943F
:102B1000E04F280388069E741C0661805A24485E94
:102B200050BC0725C05E08F4061AA0A41280085EF7
:102B30009CFC065E08A0035E709003560820563485
:102B40003456CCC05ECC5C075E382C035E54F8046F
:102B50006D2C055E9460045698D45EE818065AD829
:102B6000FC5E1420085284045E7C5007569C345E40
:102B70006098085A4C345AB0CC5E74EC07529410EA
:102B80005E6C60065E00500D5EC84C0825A04FD8F4
:102B900000780443BC000C25DC56E0E45610785E57
:102BA000B058089E08D4045E9420095E7CD0086D5D
:102BB000CC085E581C048F1802500A5A04789E04F0
:102BC000100D5618145E4C50045E386C045E544C64
:102BD000056D68045E301C07923C2C5E344C065A2E
:102BE00048C05E7070055E20040E5EE0F40356ACD3
:102BF000602D28095E48C8085A409C5E3844065E2D
:102C00006C58095E9C340A56CC88AD140D560CE005
:102C10005E28A80792280C9630E09E4870099244DE
:102C2000E05260045250C86DCC0861E45A284061FB
:102C3000E86D080B52247852240C5E18900E6DC477
:102C4000075EAC34055E947C0A5E6028035E7418EF
:102C50000A52740C9E84A4096DDC085ED484085E5C
:102C60000C6C0B6DF80A921CD05E2CB807961C8079
:102C7000524098561C845244CC5E5098088F4002B3
:102C80001C075E58680B61E49624E85E34D40B9A06
:102C9000FC205E001C0A5EB0D40A52B4045E9C287C
:102CA000039684A86D780A96A4B85EE0200C52D8EA
:102CB000E08FE80164089E0CE80D9A28749618E0ED
:102CC000659C6D080C9E14D8036D9C0C921CFCDE58
:102CD000484C069A28C85E38F808DE10140D5EF0DD
:102CE000BC0C5EA8B80B52BC045AA4889E94AC06D7
:102CF00092CCEC9ED8780D5EE824049EECB4089249
:102D000010E05E1C2403922C8065B09E3008065EA5
:102D10000810069A1C609E0404119E28200D8F1036
:102D20000220099E409C039218485214E45EE490ED
:102D30000C5AB87456C8CC5EA0200A9AB8849EC8B3
:102D4000B80CAD24116DC8115E1C74039E1890114F
:102D50005E1488039E243C129E0CC80D9E1C640EBB
:102D6000960CCC9E08D80FA9789610A06D04039EEF
:102D70002C0003A1185E1464049AD4648FEC01D86B
:102D80000B6D780E52EC1C9ED054049E08581261B4
:102D9000E05E0CD808DE1080129614A49E0C880306
:102DA0005E1C08099614749E146005DEFCBC046168
:102DB00010EDD004A5149A04086D680F5EE8D80BD6
:102DC00061AC5ED04C0961DC5EF070035ED47803C8
:102DD00061CCADDC0F6D9C1361E00E190C0010612D
:102DE000209E084014A1180D12C012ED9C100F1463
:102DF000FC0144120E11087810A5185EEC58109EC4
:102E0000E48407A104DEF02814D204B8E1BC0E115A
:102E10000C0411021108F40E190CF011E5B8ED04C0
:102E2000130112E40211083C6D1415A1E00E15F017
:102E3000D411E1D4921010E96802150078E5840DF0
:102E400016C013D6F4B4AD0016AD84150219086C83
:102E50006DB012E5B052E8EC0E11ECB01269EC9EC8
:102E600018F40661109E201006DA04840D164C1327
:102E7000ADB8169EFC38139AF04CD2F418D2F0E498
:102E80000D127C16ED14179EF8A013DAF098ADAC75
:102E9000139604B09E0C40049E18E8070A11088897
:102EA000051AC0E9840112E00E11F88C030E11041A
:102EB0000803A9586D6C13A1BC6D58040E15F46875
:102EC000149608A4ED4C03ED7C140D166C16ADF0B1
:102ED00015ED8403A99CDEF00404DEF02015031038
:102EE000FC0184DE0C9405DE0C24160D16E0030DA7
:102EF00016A016022904180A1108A8EDB017061129
:102F0000F4B0A1040D127004DE08EC040E1108ECFC
:102F1000040D1AC0170E29004C180D1A1C180D129A
:102F2000D8160D12D016ED3003A1040E11F8580575
:102F30006DD0056D6C0BEDAC039E140C095E148016
:102F40000952E01C5E1074089E18F41A9EE0C81A1C
:102F50009E10BC086D9804DEF4B81A6D8006D2F09D
:102F6000386DAC08EDA0055E08981A9EECCC050EF5
:102F70001100DC06EDA804ED1007DE140805EDD8FD
:102F8000050E150C54080D16A406051A780E15F436
:102F900098080D1A10190D16281A0E11046C07AD99
:102FA000CC0A9218DC5E1C440DA104AD4809DE1069
:102FB000F019AD400C9EC8C00A9EC464175ED08054
:102FC0000B0F10F001401AAD740A0E15087C039621
:102FD000F0F0ADD0089E10700D9E30E80E5E447487
:102FE0000F5E800C106D98189E6C740F5A20485E0E
:102FF000E0340D5E8430185E8050135E5410135E12
:1030000078D4146D24196D281265049E18E00D6D96
:10301000940E6DF80A61189E089809ADB00AED2863
:103020000BA134ADD40A0E11003C07AD941D0D1256
:1030300008085E1070145E6C68155E7014119E7442
:10304000800E5E3880035ED8900B5EA0B8165E805E
:1030500004105E34F40F5E646C186DF8155EA81CE5
:1030600014960080ADCC0D6D88109228086D4C0729
:103070006D241E9E241C0F9E1818106D380FCF2C27
:10308000024C10AD8C0C9ED8000D9E00F41E92F4E4
:10309000946D4C0B5E9CAC139ED4B0196DF4135E12
:1030A000F4901A2D4C165EF0A8125624FC6D1415DF
:1030B0005E640418ADE4096DFC089E44A0129ED81D
:1030C00024106D041F52DC085E20441B5E54A012C5
:1030D0005E7880125290085E6410175E600C126D6C
:1030E0009C0E5EE4EC0D6D3C055ECC64199ED8949C
:1030F000065EF07C036D1013ADEC0992EC906DD47C
:10310000085EA81C192D2C18529C7C8B0002E85ECE
:103110006CE4125E90E0125E2C14116D3C115EB8EE
:1031200014165E6C941B9E543C0F6D80032DD40EC0
:103130006DB01ACFF001300F6D2C175E6CE8115E88
:103140005C14116D1C105664106D20065E3038172B
:103150009EECC00A9EC0A4115EB02C1C5EB4D410BC
:103160005ED098179EC00810CFF001F4046DA8102F
:103170005E385C192D88174F9C0380175E98901756
:103180005EB498165E58CC1B5E94D4145E00E418AE
:103190009EDC6C0F6DA0185EB8E41A5E4C8C1A9E13
:1031A000E420055EA034135EB4CC1A9618346D107A
:1031B00019DE4864119E2440139E04001A5E40905C
:1031C0001D6D60122DC4169EE0D8125E70A4139E71
:1031D000C0BC0C5EDCA8139EFCC00DA920AD8020F5
:1031E0005E14001C2D34182D88194F7003701D5A61
:1031F000702C2D141C5E00E41C2DE01C5E740C155C
:103200005E98B41B9634C85E7C8405568CFC9EB4D4
:10321000081D5EAC8C176D881A9E00381E5E6CD837
:103220001A5E5C20039E3CB4229E1C40056DB00BD0
:103230009E3CDC1C6D64139E1040159EA8D4055E58
:10324000D0EC1E6D58089EF8AC036D10066D081981
:10325000DEEC68085E48741E2D54045AE0386D2474
:10326000173D08224E011C162D5C1C1EA4441C5E3A
:10327000606C1B5EB810165E2C84156D88155E643C
:10328000B41821A45E90DC165EB8281F5A64E05A78
:1032900010AC5E603C045E80C4175E88D0048F185A
:1032A00002A80E9E1830116D681C6D8C159E405042
:1032B000039E4CAC035ECC941F9E905C045EDC6C61
:1032C000139ECCDC1D5A9C585EA080179EEC0C0708
:1032D0009E48EC1F5E68941D2E54A01C5D941C5EDD
:1032E0005CCC132D3C0356CC145AE43C5E94A41CD5
:1032F0009E14F4035E7C6C1F5E9414049E6068054B
:103300006D70086DE8146D740A6DDC039E34181638
:103310005A50789EF89C0A9E1C280A9E0C4C165EF9
:103320003490155E34581E52943C9EC484145E340E
:1033300048205E9440215E985C039EE09418ADACFA
:103340000A9E2C7418DE48D4162DA81D5E50E81C69
:103350009E8480093D181F59445E04B81D9E0410C8
:103360002183E801409E88E4178F440228065EBC52
:103370001C055E80841D9EF004045A287C9E5868BB
:10338000199E48C0166DB4139EEC30269E107C0426
:103390005E4C7C04DE3C00136D8C165A982456BC9F
:1033A0001C87DC01B8AD50119EE8C814AD5C079ACB
:1033B00030B05E685C1F5F6C03741B5D20083DB419
:1033C000155DB8075E5090042D5C1B5E18C0035E4F
:1033D000BC841E6D78166D200A5E88D81ECF04024C
:1033E000440F6DCC1D92E4089E20901F6D901A9E94
:1033F0003CE417DE381408AD24166DA0189E506406
:103400000356F4C052D470651892B0806DFC159EBE
:10341000C8B0059E0038165E0460056D38075E2C46
:103420007C232DC41B5664245E38181A5E50082075
:103430002D04205E64641D4FA8005C1E6DC4199E9F
:1034400090E41D9E3CE01D5E942C046DE4172D4419
:103450000556A4D49EE064078FFC01CC0D5E401499
:10346000089E481C0E9E38F8096DE4286DA8049E3D
:1034700028A0059E3CB8249E04B8199EC8E0085AAE
:10348000A8CC9ECC94199EE80C099E10C4179E1CD3
:1034900010069E2C78052D40202DCC206D84205EBA
:1034A00090EC075E20000B5E6CD4062DD81B6D449B
:1034B000195E6010059E307C255E880C245E60A439
:1034C000215E6068049AF4446D58259ED4040D5E14
:1034D0000CB81E9E18CC069E40401A9E2C58199E71
:1034E0001C440B6D380B5E1CD41A9EC04C169EBC3F
:1034F000180A9EE0700D9EE84C13DE08B80E9E0C74
:10350000901B6DA00B2D90044F1C03240A5E38B055
:10351000232D84075E581C065ACC4C2DD0249E685F
:10352000981F9E9834066DC40765145E88B4239E68
:1035300060E022DE14C8056D0003CFCC01942A9E02
:1035400020D01C5E50C01DAD90269E34540C9EE4CD
:103550005C136D740E9EF0FC269EE4081C6D400BFF
:103560006D1C27616C6DBC0DAD88046D641D5EBC67
:10357000E4235E78901F5E9438076DC4245E440097
:103580001F5E54380D9E30A01A96901C9E00FC1EA3
:103590009E54101EAD880561849EF494049EF044F0
:1035A00011AD30179E2C641C5E24801A9E20801D55
:1035B0006D481192F844DEDC5C049EF8741592E8C4
:1035C00020AD602CDE08940A6D901E9E9494259E7A
:1035D0007C14255EE4C8085E8090205E54B4269E6C
:1035E00040540F5690F8ADBC0C9E08540B5E40C47E
:1035F000049E6854286D240E9E2C2819DE109C1001
:10360000DE04942ADEF8C02B0E21FCFC2A9E04A4C2
:10361000129EEC981F6DA41A9EE03C17AD54129EAA
:1036200030F0266D58205E7CC4255E34D41C5EECE0
:10363000C41C5E8898288F4C01A4259E44082965E7
:103640001C9EE410039E3C14269E6CFC1F5E6814B6
:10365000069E3C98179E204C130E110090140D16D8
:103660004C19AD54180E110C48130E11006C179E16
:10367000E8101ADEDC80049E04D0079E44B020AD22
:10368000701D9EF80C049E9CC41E5E5C080B5E843C
:103690007C105EA4D80C9EE4500B9E3C2C0C6D3C20
:1036A000209E644C1FAD282B9E1810140F10FC0197
:1036B000802B9E100413DE14F01CCF000204169E13
:1036C000E8E008DEEC6C180F10F8015C14ADF016A1
:1036D000AD1C216DB8209E0CD8199EE8441C9EB4E8
:1036E000001F9EA8181E5EB064135EC01410A9E8E7
:1036F0006D042A9E407C269E48E8070E113838212A
:10370000DE20F418EDCC1ADE1CAC12DE106C0C6D51
:103710003C096D88069EE05C20DEDC541BAD541E27
:10372000D21884DE2038179EFC701C6DE00692C40F
:10373000049EB86C1D9EDC3416ED8C17D21C68E517
:1037400084DE24740FA1289E245027E1A4AD00310B
:10375000ADCC159EE87005ED6C21D2DCD4DEE41C06
:103760001ACFF8017803DE0434200D121C19AD6461
:103770001A92E858EDD017DE00E41DDE10201FADD0
:10378000EC15DE1424169E1C1416A50CDE18C019A8
:10379000ED5004ADE016AD241AD6EC049EE45403BB
:1037A000E5200E15F46819ED4C1EA5340215089499
:1037B000ED5417DE04CC210E1114D01D0D12741F10
:1037C0000F1804026C310E19007819011204ED145F
:1037D0001DEDB01D92E804DEECF41B9E04B81C0D38
:1037E00012C0170E110C841D0E11F4C4300D12B44A
:1037F000180D1674320D12BC1FED501F0D12CC188F
:103800000E1D006C20021100A40D162419DAF41804
:10381000ED40330912DCEDE0040A150414DEF8E88B
:103820001B0112C40D12D0320611FCC80D1AB83398
:103830000A1108B40F1C0402581EDEF8781D0E1180
:10384000F00C180D1A001AED7C320E11088C220DA6
:10385000121808DEF80008E1900D1EA01DED40359D
:103860000D12B435ED9C040912640D123834D2F8EF
:1038700088ADB007AD9C330E110020049E0C70166D
:103880008F14022C266D1414ED7C196D300B9E14D0
:103890003C089E14C0079E04E01C0A190064E974E9
:1038A0000619FCC09E004C1AAD3C1BED14370D1AD6
:1038B00044350D129C20ED601AADE41B0E1914481E
:1038C0001E0F240002B035AD40210E11141C360726
:1038D00010EC015C0D169C0B0E190CE43502111452
:1038E000706DB80BDEF82804DEF4240892F00C6D3D
:1038F000E829EDA439AD180B6D5C27DE0C98389ED5
:1039000004E40B9E108C199E14841E9E145C2C6D76
:10391000E8288FE801E0219EF0B0199EE484130EA0
:1039200011E8A426CF0C02F81A6D181A9E18301B45
:1039300092101C9208F0CF1402AC0A5E10B8196104
:10394000409EDC641B5EE47817960020962438CFF6
:103950002C02C41F6DAC1961C46170D6F0046D20D7
:103960001A6DE8069E1C443A6D20298FE0016C29EF
:10397000CFF401F4289E1074115E3064369E04402A
:103980000FAD681E5EECFC146D3C1B9E24081C8F62
:103990002402E8039E1800159E202C1C8F2C024444
:1039A000159E18F81BA5B8A920AD8025AD8C18ADC3
:1039B0003C0DA5D8DA0C885E0C481B922490ADE82B
:1039C000209E18402A9E1C302B61705EE8C4046D56
:1039D000941C610CDE00501DDE180003AD3412EDA6
:1039E000783BA5B8A5A06DDC0C9AE88C616C9220A0
:1039F000849E20CC1B92182469F892F89096F0804F
:103A0000DE0484039E04D028CF14021003AD080DF9
:103A1000CFF801A8099E0808299E1864209E1CD092
:103A20000EAD3C0365889EE4C4036DC0140112987A
:103A3000D2100C9EF09C14DEF86C1BCFF001CC3D34
:103A40009A0CD49EF830169EF4C41DAD500492F426
:103A5000749EF418129EF0D01B9EF49404AD2420A2
:103A60009EE42C1A96EC44DEFC14050D1A3411ADBC
:103A70004424EDB028ADCC0E9E1CEC04DE0C1407E3
:103A800092FCDCDEF4881C9610D89E082031ADCC68
:103A90002ADA041492F8F00E31FCE43C0D22D43DF5
:103AA0000E1104D8060E1500C00A0D12803FAD801D
:103AB00026021D046CDE0C1409ED4C08AD7C0FDEF3
:103AC000E07019AD540D0F10EC013040AD140F9E95
:103AD0001CE00FADBC26ED840EAD2C099E14EC1835
:103AE0009E2878239E3C78229E3830146DD0175E35
:103AF000A448326D6C32525C106D6C236DD8109EF0
:103B0000E0CC059E3840125E54801A6DC410CF2060
:103B100002D806EDB02BDE0098199E28781F9E4033
:103B20009C1B6D6C329E3428126D1C1E9ED06C1036
:103B30005EB81C1D6DE0249ECCD82DDEE8C433ADEC
:103B40005425DE24480F9E0CDC166DC8199E5804BF
:103B5000115E00381A5EC49C335E80C03D9E842096
:103B6000145EA824220E11DCF01D6D8C239E3CF007
:103B70001DDE24102A0D12D040AD5825DE24B833A6
:103B80009E34A818DE2454186DB00E9EE05424967E
:103B9000C0346D981B6D24260E11D8FC10ADBC0DE1
:103BA000EDC42FDE1888109E28C4219E5478399EBB
:103BB000406C319EEC3C3D9E9C441A9690409EBCCD
:103BC000982FAD6C289E1C6C349E24841B9E003C58
:103BD000430E15F8142E9E18041BAD04359E245C6C
:103BE000140E150CA816AD142CED2C2CCFF801706A
:103BF000300E11E848129EE8B82E0E19FCB02EA522
:103C0000E49E243C279670509E701C335E08903DC5
:103C10005EC8DC17567C489E94681E9EA4B032A9EC
:103C200094DE101436DE2C7804DE142827DE0C080F
:103C30000E0E110C90149E1888120E151C9C290E45
:103C400011F8300FAD64129ED0301B0E11D8242A0B
:103C50000D16AC450E1504AC2CED1007AD78145EB6
:103C60005098169E44E0229E34E01B6DAC415AB839
:103C7000A06DB43A5A90BC655C9ECC4432DE14D43C
:103C800004DE34D41B0E1118782FE94CED4C2F9E16
:103C9000185442DE24F0130D12AC11DE049C109E69
:103CA000ECB812DEE4CC12DE0068130F10080290AC
:103CB0000ADEF03C159ED8F427DEE4C02B9A14BC33
:103CC0009E3C50236D14199E4C88366D60345EC83E
:103CD000F0229E8810389E9848169ED8B8189618DC
:103CE000586DA0289E30C403DE088428DEE80C1935
:103CF0000211F4B0DE1C7803DE24DC04AD382E6D36
:103D00002C06AD0044ADF8039ED4CC25AD101FDECB
:103D1000EC2C09DE0054030E1508C42F0E11F828F0
:103D200016AD642BDE58E83E9E3C283D9EEC0C42CE
:103D30005EA8CC249EB0FC26DEC09C1D6DAC18ADE8
:103D4000702C06113010ED902FD6F858ADB806063D
:103D500011185CDE28E408DE18542A9E082C459EC3
:103D6000E4BC069EDCDC07AD8816AD5435ED2816A4
:103D7000ED5807DEF06815DEFC70036D9C2569BC0C
:103D80009E50E01E9E30083C9EECF0189EB0CC0683
:103D90006DC4069EB87C19ADC406DE207C06ED1409
:103DA000040112A8DEF00037DE04F82AEDD03BED66
:103DB0002C19ADA83AADD804AD8C079ED87C3ADA60
:103DC000E080DE0854350D12D405DEF00C17DEEC71
:103DD000781B9E0880399E309420DE54CC03CF108F
:103DE0000290249EC000289EB88C0ADED4BC370EF8
:103DF00011082C340E19100035ED80120D122C32E2
:103E0000AD7805ED781A9E1C203BAD7430DEF4AC25
:103E10001FADF4199EE8D828DEF830310D12441A8F
:103E2000ED3C0BEDC81CDE00141C9E20E0269E44D9
:103E3000EC0B6D680AAD9C159EDC0C309EC8B41B63
:103E40009ECCD02392E0A4A9780E151050330E1109
:103E50000CF0360D126C38ED840B9E24801D9E20D4
:103E6000A80B9E18C04C6DC8499ED8AC1B9ED4644C
:103E70001C9EDC94060E11F0B031DE04D0160D1A33
:103E80004C0E0F100802740AAD443DDE343C3C6D0C
:103E9000141DAD601D96C0549EC0C02ADED83C31B2
:103EA0000E1104000A9E1854090E1D146C17ED1013
:103EB000339E20EC259E3000319E20703C6DAC3648
:103EC0009EFC240DDEE85C3FDED4281E0E11F0D4EB
:103ED000300E110C901CCF180284170D12841BDEBB
:103EE0000C280A9E2C600D9E047C126DC81F9EE05B
:103EF000A40C9ECC6C1E9ED01C23DEECC43B9E0802
:103F00007421AD0C3FDA18600D12480F0D16701CAD
:103F1000DE145C3A0D12B407DEF0481D0D12541E7B
:103F2000DEEC5803DE000C2FE104DE0C9C090E11C0
:103F3000FC38170D12881DAD2C3AED2411ADF01D83
:103F400092E004ADEC1DDEEC504D0A1508AC0E11EC
:103F500018F03D0E1D0424370D125811DE08740CA4
:103F6000EDF83C0D1AB41D0D168C380E1104F03B03
:103F70000D12201C0E11F834399EF83C329EEC4C88
:103F80004EDEE8F812AD5C070D164C1BDE081C3E39
:103F9000E1E40E1510B03B0E21047038036C0002F2
:103FA000040D1AA8240D1A4C1F0E15F8E01E011E50
:103FB000C40D168C4F0D2E28140122C00D165C1D49
:103FC0000D12B8370112040E150800520D12D03927
:103FD00005320C0916F40D1A6C380E15044C030D3D
:103FE00022F014051E940E29002C3B0D1A34530D9B
:103FF0001618400E1D047C3C0116040D1EA453022D
:104000003500F8011AA40E2504B0030A29FCFC0DA2
:104010003EA803012BA86101000400093D00000037
:040000050800018965
:00000001FF
