:020000040800F2
:1000000038130020790200085F22000871200008E0
:100010005D22000893090008E52B0008000000009D
:100020000000000000000000000000009D0100082A
:10003000F909000800000000F1010008012600088D
:10004000930200089302000893020008930200083C
:10005000930200089302000893020008930200082C
:10006000930200089302000893020008930200081C
:10007000930200089302000893020008930200080C
:1000800093020008930200089302000893020008FC
:1000900093020008930200089302000893020008EC
:1000A0009302000893020008F1260008930200085A
:1000B00093020008930200089302000893020008CC
:1000C00093020008930200089302000893020008BC
:1000D00093020008930200089302000893020008AC
:1000E000930200089302000893020008930200089C
:1000F000930200089302000893020008930200088C
:10010000930200089302000893020008930200087B
:10011000930200089302000893020008930200086B
:10012000930200089302000893020008930200085B
:10013000930200089302000893020008930200084B
:10014000930200089302000893020008930200083B
:10015000930200089302000893020008930200082B
:10016000930200089302000893020008930200081B
:100170009302000893020008000000000000000045
:100180009302000893020008DFF80CD000F08CFB0B
:1001900000480047BD300008381300202B4B196879
:1001A000086800F058B880F30988BFF36F8F4FF0EC
:1001B000000080F3118870470000000006480068C6
:1001C000006880F3088862B661B6BFF34F8FBFF353
:1001D0006F8F00DF00BF00BF08ED00E0DFF80C000C
:1001E000016841F470010160704700BF88ED00E0D4
:1001F000EFF30980BFF36F8F144B1A681EF0100FD6
:1002000008BF20ED108A20E9F04F106008B44FF0CD
:10021000500080F31188BFF34F8FBFF36F8F03F04F
:100220009BFA4FF0000080F3118808BC1968086839
:1002300000F016B81EF0100F08BF00F016B880F3DB
:100240000988BFF36F8F704700BF00BF4C000020CC
:10025000EFF30580704730C8B0E8C04FFFF7A3BF89
:1002600030C8B0E8C04FFFF7E5BFB0EC088AB0EC8B
:1002700008CAFFF7E4BF0000064880470648004769
:10028000FEE7FEE7FEE7FEE7FEE7FEE7FEE7FEE746
:10029000FEE7FEE7AD26000889010008B5EEC00ABA
:1002A000F1EE10FA07D2DFED1E0AB4EEE00AF1EE2D
:1002B00010FAA8BF7047DFED1B0AB5EEC00A60EE6A
:1002C000200ABDEEE01A11EE100AF1EE10FA38BF66
:1002D000401E00EE100A1549F7EE001AB8EEC00AEB
:1002E00030EEC00ADFED100A60EE200ABCEEE00A34
:1002F00010EE100AC0F3080000EE100A01EB8000B7
:10030000B8EE400A90ED011A70EEC00A90ED000AB6
:1003100071EEE01A21EE800A00EE810A70470000BB
:10032000CD024CB483F9223E00000044203B00087B
:100330002DE9F05F0546002092469B46884606461A
:10034000814640241BE0284641464746224600F0AD
:10035000E8F853465A46C01A914110D31146184640
:10036000224600F0CFF82D1A67EB01084F462246CF
:100370000120002100F0C6F817EB00094E41201EB5
:10038000A4F10104DFDC484631462A46434600F02A
:1003900000B830BCBDE8C09F40EA01039B0703D012
:1003A00009E008C9121F08C0042AFAD203E011F8B4
:1003B000013B00F8013B521EF9D270472DE9FE4F78
:1003C00081EA030404F0004421F0004100944FF05E
:1003D000000B23F0004350EA01045ED052EA03040C
:1003E0005BD0C3F30A54C1F30A552C44A4F2F3348E
:1003F0000194A0FB0254C1F3130141F48011C3F333
:10040000130343F4801301FB024400FB034E840AF0
:10041000970A44EA815447EA8357A4FB0768029588
:100420008D0A05FB07854FEA932C04FB0C54270526
:10043000029D4FEA065847EA1637B5EB08056EEB02
:10044000070C870E920E47EA811742EA8312A7FB38
:100450000201B6EB0B0164EB00042B0D43EA0C33F5
:100460005E1844EB1C50DA465146E7FB0201C5F327
:1004700013044FEA0B3343EA14534FEA0432019C4E
:1004800043EA0603A4F10C040294009CCDE900B4F5
:1004900000F09DF803B000F003B800200146F9E732
:1004A00030BCBDE8C08F00F0004230F000400AD000
:1004B000C10D01F56071C0F3160042EA0151C20896
:1004C00040071143704700200146704701F0004388
:1004D00030B421F0004150EA010206D00A0DA2F525
:1004E0006072C1F31301002A02DC30BC00207047A7
:1004F000440F44EAC104C100E01830BC00EBC25014
:1005000000F01FB8202A04DB203A00FA02F1002094
:1005100070479140C2F1200320FA03F31943904041
:100520007047202A04DB203A21FA02F000217047AC
:1005300021FA02F3D040C2F120029140084319464B
:1005400070470029A8BF7047401C490008BF20F031
:100550000100704710B4B0FA80FC00FA0CF050EAC9
:10056000010404BF10BC704749B1CCF1200421FA4A
:1005700004F411FA0CF118BF012121430843A3EB45
:100580000C01CB1D4FEA00614FEA102042BF002052
:1005900010BC704700EBC35010440029A4BF10BC2E
:1005A0007047401C490008BF20F0010010BC704794
:1005B00010B5141E73F1000408DA401C41F100016B
:1005C00092185B411A4301D120F0010010BD2DE9C2
:1005D000F04D92469B4611B1B1FA81F202E0B0FAB9
:1005E00080F220329046FFF78DFF04460F4640EA26
:1005F0000A0041EA0B0153465A46084313D01146FC
:1006000053EA010019D0C8F140025046FFF789FFB4
:1006100005460E46504659464246FFF773FF0843CB
:1006200005D0012004E020463946BDE8F08D0020C9
:10063000054346EAE0762C4337430A986305E40A0B
:10064000A0EB08000022FD0A44EA47540A3002D514
:1006500000200146E9E7010510196941DDE9084577
:1006600000196941BDE8F04DA2E72DE9FE4F804633
:1006700081EA0300C00F0C46009021F0004123F0F6
:100680000045B8EB0200A94105D2404621469046FC
:100690001C460B46024623F00040104347D0270D6E
:1006A000C7F30A00C3F30A510290401A0190402890
:1006B0006BDAC3F3130040F4801B0098924620B11C
:1006C0000023D2EB030A63EB0B0B01985946C0F1F0
:1006D00040025046FFF716FF06460D465046594663
:1006E000019A00F0F3F810EB08006141002487EA5A
:1006F000115284EAE7731A4340D0009A62B3019A18
:10070000012A4FEA075215DC001B61EB02014FF092
:10071000004202EA0752CDE90042001C41F5801177
:1007200032462B46FFF753FF03B000F045B8404672
:100730002146F9E7001B61EB0201001C41F5801323
:1007400000185B412018A2F5001747EB030140EAAF
:10075000D570B6196D4111E06D084FEA360645EACD
:10076000C0754FEA0752001B61EB0201001C41F506
:10077000801149084FEA30000019514132462B469A
:1007800003B000F01CB8FFF713BF0098012240002F
:100790000023D0EB020263EBE073009821464FEA9E
:1007A000E074B8EB000061EB0401E9E783F000437B
:1007B0005BE781F0004158E730BCBDE8C08F30BC3A
:1007C000BDE8C04FFFF7DFBF2DE9F04D81EA03041C
:1007D00004F0004B21F0004514464FF0000A23F0CE
:1007E000004150EA050220D054EA01021DD0C5F3B1
:1007F0000A570246C5F31303C1F31300C1F30A56A7
:1008000040F4801543F48013A7EB0608101BD6466E
:1008100008F2FD3873EB050002D308F1010801E08E
:1008200092185B41B8F1000F03DA00200146BDE8E1
:10083000F08D00204FF48011064684460EE0171B11
:1008400073EB050705D3121B63EB050306434CEA64
:10085000010C49084FEA300092185B4150EA010749
:10086000EDD152EA030012D082EA040083EA0501C6
:10087000084305D0101BAB4106D20122002306E03D
:1008800000224FF0004302E06FF0010253101AEB18
:1008900006004CEB085110EB0A0041EB0B01BDE8E0
:1008A000F04DFFF785BE0000064C074D06E0E068FE
:1008B00040F0010394E8070098471034AC42F6D3A7
:1008C000FFF766FC88430008A8430008202A06DBDF
:1008D000CB17203A41FA02F043EAE07306E041FA0E
:1008E00002F3D040C2F120029140084319467047FC
:1008F0002DE9F04D00231A461B1A8A4103DB002024
:100900000146BDE8F08DC1F30A52C1F3130141F471
:1009100080154FF0000BD10702D100186D41521E17
:100920000027044640F2FF11384601EB620A3E46BA
:100930008046024600204FF48011FFF7F2FDC219F5
:100940007141BB1846EB0100B4EB030C75EB000CD6
:1009500004D3E41A65EB000517460E46241908F186
:1009600001006D4180463428E3DDF91946EB0600AD
:10097000091BA84103D24FF0FF32134601E00022C9
:1009800013461BEB070046EB0A51BDE8F04DFFF79D
:100990000FBEFEE71749884201D100207047154974
:1009A0002031884201D101207047124940318842EC
:1009B00001D1022070470F496031884201D10320E4
:1009C00070470C498031884201D1042070470949A1
:1009D000A031884201D1052070470649C0318842C4
:1009E00001D1062070470349E0318842D5D1072064
:1009F0007047000000600140704700002DE9F0479B
:100A000004464079002715460E46012809D04FF0CC
:100A1000010984F80590022020713068042803D071
:100A200044E00220BDE8F0874FF003080DBB00F062
:100A30004FFB074605E000BF00F04AFBC01B012842
:100A40000FD82068406B0004F6D4012000F048FA6B
:100A50002168B069086416E000F03AFBC01B012869
:100A600007D9206940F00800206184F80480032041
:100A7000D8E72068406B0028EEDB012000F030FA58
:100A80002168B06948642068816C40F2FF32AA4056
:100A90009143F269AA40114381642068C16CFF222E
:100AA000AA409143326AAA401143C16430690128C7
:100AB00008D12268916B1F20A84081437069A8402B
:100AC000084390632268D06B0721A9408843B3682C
:100AD00031681943F3681943A9400143D163206881
:100AE00001684FF48042AA40914301602268116876
:100AF00040F6FC70A84081437068A840084310602D
:100B000020680168C022AA409143016084F80490E3
:100B10000020607186E770B5040003D020790025BD
:100B200010B105E0012070BD6571204600F008F8A5
:100B300002202071256101202071002070BD00007D
:100B400000B500680C4987B0884213D10B48816D0D
:100B500041F000518165806D694600F000500590BC
:100B60003020009003200190002002904FF0904030
:100B700000F0C4F907B000BD00740040001002404E
:100B800018B5046800940068104421B11430009036
:100B90000360002018BD0830F9E730B54279012A1A
:100BA00012D0012242710223037103681D6802FA08
:100BB00001F425431D60002901680B6806D0C3F3CA
:100BC00083430F2B0AD00DE0022030BDC3F3830313
:100BD0000F2B07D14B6843F0010302E04B6843F051
:100BE00002034B60027100214171084630BD0000D4
:100BF00070B5040006D02068FFF7CCFE374D55F8DD
:100C0000200008B1012070BD204600F06FF8344884
:100C10000168491C016000683249012819D1324835
:100C2000026822F0804202600268A3681A430260F0
:100C3000026822F47F0202602279012A05D102684B
:100C4000A38901EB03431A430260026842F00042A9
:100C500002602068026822F4714202602268106813
:100C600023691843D4E905363343184310602068DC
:100C7000026822F00F020260D4E9072002432068D4
:100C800003681A4302602068826822F45F0282606F
:100C900020688268636A1A43238D01EB03410A438B
:100CA00082602068416801F007014160E06A216BC1
:100CB000000240EAC1012068426811434160206897
:100CC000016841F080010160012084F8340020684F
:100CD000FFF760FE45F82040002070BD7002002044
:100CE0001C0000200000FFFF0060014000B511481B
:100CF00087B0416800291BD10168491C01600129A6
:100D000008D10D48016E41F080710166006E00F05F
:100D1000807005904FF42070009002200190002018
:100D200002900390062004906946044800F0E6F81B
:100D300007B000BD14000020001002400010004861
:100D400070B590F84C400023C4B1FF2C16D0046855
:100D500025680C4E3540256004686FF30F01012AA9
:100D6000256804D045EA01212160026307E04FF4C1
:100D7000802646EA01210D432560F6E70123184647
:100D800070BD0000FFFFFBF870B5040031D03C4996
:100D90002068884205D1606801282AD0E0680128CF
:100DA00027D00125002065642063A56420652046C6
:100DB00000F06CF82068016821F400210160207ABD
:100DC00001282068016816D021F000510160607A86
:100DD00001282068016811D021F400110160206809
:100DE000016846F2087291430160E068022808D069
:100DF0000CE0012070BD41F00051E7E741F4001123
:100E0000ECE720680168626911430160207C0128D9
:100E1000206801682ED021F010010160607C01285B
:100E20002068016829D021F0200101602068416913
:100E3000144A1140416120684169E269124B114333
:100E4000228C03EB0242636A5B1E1A431143416129
:100E500060686063E068A063A069E063207C84F858
:100E600040002068016841F00101016084F84C50A5
:100E7000002070BD41F01001CFE741F02001D4E720
:100E80000061014000FF001C0000FFFF00B5114899
:100E900087B0416800291BD10168491C0160012904
:100EA00008D10D48016E41F080710166006E00F0BE
:100EB000807005904FF42070009002200190002077
:100EC00002900390062004906946044800F016F84A
:100ED00007B000BD140000200010024000100048C0
:100EE00070B5044600F0F4F80546601C00D0641CA0
:100EF00000F0EEF8401BA042FAD370BD2DE9F84F88
:100F0000DFF898B100234FF0010C4FF0030A4FF0C7
:100F10000F090BF1040EB9E00CFA03F4224070D073
:100F20004D68022D01D0122D0ED1DD0800EB850891
:100F3000D8F820505E07F70E09FA07F6B5430E6998
:100F4000BE402E43C8F8206007685E0091F8048018
:100F50000AFA06F508F00308AF4308FA06F848EA6B
:100F60000708C0F800804F68012F05D0022F03D07A
:100F7000112F01D0122F13D1D0F80880CF6828EAA2
:100F80000508B74047EA08078760D0F804800F7962
:100F900028EA0408C7F300179F4047EA080747609C
:100FA000D1F804806FEA0807BF0706D1C76AA743D4
:100FB000C8F3C0049C403C43C462C468AC438D6821
:100FC000B5402543C5604C68E4005ED5344C256EC1
:100FD00045F001052566246E23F0030504F00104A5
:100FE0000094304C2E19B4689D072F0F09FA07F5AD
:100FF000AC43B0F1904F05D02B4DA84204D1012550
:101000001CE042E0002519E0284DA84201D102254C
:1010100014E0274DA84201D103250FE0254DA84239
:1010200001D104250AE0244DA84201D1052505E09F
:10103000224DA84201D1062500E00725BD402543E9
:10104000B560DBF800405D464E689443F60300D57A
:1010500014432C60DEF8004075464E689443B60396
:1010600000D514432C600D4D08352C684E68944310
:10107000F60200D514432C60084D0C352C684E68E0
:101080009443B60200D514432C605B1C0A6832FA04
:1010900003F57FF441AF00F013B8000000040140F5
:1010A0000010024000000140000400480008004811
:1010B000000C0048001000480014004800180048C8
:1010C00018BCBDE8E08F0AB181617047816270474A
:1010D00001480068704700002000002002480168B5
:1010E000491C0160704700002000002010B503205B
:1010F00000F0AEF8002000F005F800F03DF8002008
:1011000010BD000000B5014687B000221A2000F093
:101110007FF81A2000F070F81348016E41F4802126
:101120000166006E05A900F480200690684600F074
:101130003DFB00F071FB0D490D4AB0FBF1F10D488C
:10114000491E0260416040F2E7320021C0E90321FC
:10115000816000F02CFE10B1012007B000BD0548F1
:1011600000F042FEF9E700000010024040420F008C
:1011700000480140300200201E4808B5016E41F0D1
:1011800001010166016E01F001010091816D41F0E4
:1011900080518165806D00F080500090032000F048
:1011A00057F8002211466FF00B0000F031F80022D2
:1011B00011466FF00A0000F02BF8002211466FF084
:1011C000090000F025F800221146501F00F020F819
:1011D00000221146101F00F01BF800220F21901E64
:1011E00000F016F800220F21BDE80840501E00F064
:1011F0000FB800000010024000F01F0201219140D2
:101200004009800000F1E020C0F8001170470000A4
:10121000F0B40E4B1B680C46C3F30223C3F1070561
:10122000042D00D90425191D072901D2002300E04F
:10123000DB1E012606FA05F1491E214099409E4019
:10124000761E16403143F0BC01F00AB80CED00E008
:10125000064900F0070208684FF6FF03184040EA0D
:101260000220034A10430860704700000CED00E0C4
:101270000000FA051549B0F5007F0868C0F3412069
:1012800009D0022805D0086820F4C06040F48060CE
:101290000860002070470128FBD0086820F4C06077
:1012A00040F4007008600A480A4A0068B0FBF2F097
:1012B0003222504300E0401E10B14A695205FAD470
:1012C00048694005E5D503207047000000700040E4
:1012D0002400002040420F000248006800F4C06073
:1012E00070470000007000402DE9F84F04460027C9
:1012F0000088E54D3E46010504F1200B1DD5606ECA
:1013000078B1B0F5800F11D0B0F5000F04D0B0F572
:10131000400F22D001270FE0E86840F48030E860F9
:101320001BE00021201D00F0ABFF03E00021584628
:1013300001F03CF8070010D03E462088C00426D5B6
:10134000A06EC0B1B0F1807F1AD0B0F1007F0DD097
:10135000B0F1407F19D0012718E0D5F88800616E00
:1013600020F440000843C5F88800E6E7E86840F448
:101370008030E86009E00021201D00F081FF03E0DB
:101380000021584601F012F80746F7B13E462068A2
:1013900080033AD5A86D4FF00008C00009D4A86DAD
:1013A00040F08050A865A86D4FF0010800F0805013
:1013B0000090DFF8D8A2DAF8001041F48071CAF882
:1013C0000010FFF785FE814610E0D5F88800A16E79
:1013D00020F040700843C5F88800D8E7FFF778FE92
:1013E000A0EB0900022801D9032705E0DAF8000084
:1013F000C005F3D5002F7CD04FEA0706B8F1000FE7
:1014000003D0A86D20F08050A8652078C00707D0D1
:10141000D5F88800A16B20F003000843C5F88800C8
:101420002078800707D5D5F88800E16B20F00C0004
:101430000843C5F888002078400707D5D5F888000C
:10144000216C20F030000843C5F8880020780007A0
:1014500007D5D5F88800616C20F0C0000843C5F8B6
:1014600088002078C00607D5D5F88800A16C20F444
:1014700040700843C5F888002078800607D5D5F865
:101480008800E16C20F440600843C5F8880020889B
:10149000800507D5D5F88800E16D20F44020084389
:1014A000C5F888002088400507D5D5F88800216E4A
:1014B00020F440100843C5F888002078400607D57E
:1014C000D5F88800216D20F440500843C5F8880005
:1014D0002078000607D5D5F88800616D20F44040DB
:1014E0000843C5F888002088C00509D5D5F88800CC
:1014F00000E01CE0A16D20F440300843C5F88800EE
:1015000020884FF0006780044FF080684FD5D5F8F1
:101510008800E16E20F040600843C5F88800E06E66
:10152000B8423CD1E86840F48010E8603FE0D5F86C
:10153000900010F4407015D0D4F88410814211D07E
:10154000D5F89000D5F8901020F4407041F4803127
:10155000C5F89010D5F8901021F48031C5F890109E
:10156000C5F89000C00710D0FFF7B2FD074641F262
:10157000883906E0FFF7ACFDC11B494501D90326B8
:101580003CE7D5F890008007F4D5D5F89000D4F862
:10159000841020F440700843C5F890002EE74045C1
:1015A00005D10121201D00F06BFE00B10646206828
:1015B000000317D5D5F88800216F20F0406008435C
:1015C000C5F88800206FB84204D1E86840F4801064
:1015D000E86007E0404505D10121201D00F050FEE4
:1015E00000B106462068400317D5D5F88800616F22
:1015F00020F040600843C5F88800606FB84204D10D
:10160000E86840F48010E86007E0404505D101211A
:10161000201D00F035FE00B10646208840041AD592
:10162000D5F88800A16F20F040500843C5F8880025
:10163000A06FB0F1805F03D0B0F1005F05D00AE089
:101640000221201D00F01CFE03E00221584600F09C
:10165000ADFE00B106462088000407D5D5F8880005
:10166000E16F20F080400843C5F888002068C0037F
:1016700007D555F8880FD4F8801020F000400843B3
:101680002860304600F004B80010024000700040AE
:1016900018BCBDE8E08F00002DE9F0470F460500BB
:1016A00058D03E4E306800F00700B84209D230688A
:1016B00020F0070038433060306800F00700B8427F
:1016C00048D12878364CC0072CD06868032811D040
:1016D000022812D0216898B1490500293ADAA16898
:1016E00021F003010143A160FFF7F2FC804641F2C3
:1016F000883910E021688901EFE721688903ECE768
:101700008907EAE7FFF7E4FCA0EB0801494502D9A5
:101710000320BDE8F087A068696800F00C00B0EB1A
:10172000810FEFD12878800705D5A068A96820F03F
:10173000F0000843A060306800F00700B8420BD901
:10174000306820F0070038433060306800F0070050
:10175000B84201D00120DCE72878400705D5A06811
:10176000E96820F4E0600843A0602878000706D507
:10177000A068296920F4605040EAC100A06000F030
:101780005BF8A168074AC1F30311515CC8400649E0
:1017900008600020FFF7B6FC0020BAE700200240F6
:1017A00000100240D83A0008240000200F220260F6
:1017B0000C4A936803F003034360936803F0F0035B
:1017C0008360936803F4E063C36092684FF4E0635E
:1017D00003EAD20202610448006800F007000860D2
:1017E00070470000001002400020024001480068DD
:1017F00070470000240000200448054900688968FB
:10180000044AC1F30221515CC84070472400002003
:1018100000100240183B0008044805490068896828
:10182000044AC1F3C221515CC84070472400002023
:1018300000100240183B000830B52D49002318461F
:101840008A682C4C12F00C0F4FEA640514D08A6899
:10185000C2F38102032A04D1CA6802F00302012AFA
:101860000AD08A68C2F38102012A19D08A68C2F3B9
:101870008102022A16D016E00A68120704D4D1F8B1
:101880009420C2F3032202E00A68C2F303121A4B47
:1018900053F822308A6812F00C0F04D1184602E087
:1018A000204600E028468A68C2F38102032A1DD13F
:1018B000C868CA6800F00300C2F30212521C022872
:1018C00004D0032805D0B3FBF2F004E0B4FBF2F03F
:1018D00001E0B5FBF2F0CA68C968C2F306225043C2
:1018E000C1F34161491C4900B0FBF1F030BD00007B
:1018F000001002400024F400E83A00082DE9F84303
:1019000004007DD02078FF4DC0065DD5A86810F09A
:101910000C0F0AD0A0690028286873D040F001009D
:101920002860FFF7D5FB064655E02868800702D5FA
:10193000A0690028E5D0216A2868000703D5286837
:1019400000F0F00004E0D5F89400F02202EA101054
:10195000814216D9084600F0ADFD002850D1286814
:1019600040F0080028602868216A20F0F000084351
:1019700028606868E16920F47F4040EA01206860DF
:1019800015E0286840F0080028602868216A20F0E7
:10199000F000084328606868E16920F47F4040EA6D
:1019A00001206860206A00F085FD0028D6D1FFF78D
:1019B00043FFA968D44AC1F30311515CC840D3491D
:1019C00008600020FFF79EFB2CE000BFFFF780FBC4
:1019D000801B02287ED828688007F7D5286840F049
:1019E000080028602868216A20F0F0000843286079
:1019F0006868E16920F47F4040EA0120686011E0F6
:101A0000B2E0FFE720F001002860FFF761FB064627
:101A100005E000BFFFF75CFB801B0228DAD82868CE
:101A20008007F7D42078C00748D0A868C0F38100A9
:101A300002281DD0A868C0F38100032803D1E868FC
:101A4000C043800714D06068B0F5803F17D0B0F570
:101A5000A02F286817D020F480302860286820F450
:101A6000802028606068E0B1FFF732FB064614E092
:101A70002868800322D56068002875D01EE0286899
:101A800040F48030EDE740F480202860F7E700BFA5
:101A9000FFF71EFB801B64289CD828688003F7D5BD
:101AA0000CE0FFF715FB064605E000BFFFF710FB53
:101AB000801B64288ED828688003F7D4207880079C
:101AC00042D5A868C0F38100012816D0A868C0F3E9
:101AD000810000E0A9E0032804D1E86800F00300D9
:101AE00002280AD0E068002828681DD040F48070E1
:101AF0002860FFF7EDFA06460BE0286840050BD595
:101B0000E0680028B9D007E0FFF7E2FA801B02285E
:101B100084D828684005F7D56868217C20F0F85003
:101B200040EA016068600FE020F480702860FFF7F1
:101B3000CFFA064605E000BFFFF7CAFA801B02286D
:101B400073D828684005F7D42078000729D5606944
:101B50000028D5F8940013D040F00100C5F8940097
:101B6000FFF7B6FA064606E0FBE000BFFFF7B0FA63
:101B7000801B022859D8D5F894008007F6D510E0CC
:101B800020F00100C5F89400FFF7A2FA064604E031
:101B9000FFF79EFA801B022847D8D5F894008007EB
:101BA000F6D42078400763D5A86D0026C00008D47D
:101BB000A86D40F08050A865A86D012600F0805007
:101BC000009053480168C90511D40168804641F46A
:101BD00080710160FFF77CFA074604E0FFF778FAAE
:101BE000C01B022821D8D8F80000C005F6D5A0688F
:101BF000012815D00528D5F8900017D020F0010055
:101C0000C5F89000D5F8900020F00400C5F89000C9
:101C1000A06841F28838C8B1FFF75AFA074610E0C9
:101C2000D5F8900040F00100F0E777E040F00400C4
:101C3000C5F89000F4E700BFFFF74AFAC11B414521
:101C40006CD8D5F890008007F6D50CE0FFF740FA85
:101C5000074604E0FFF73CFAC11B414579D8D5F8A7
:101C600090008007F6D41EB1A86D20F08050A865C2
:101C7000A06AE0B3A968C1F38101032972D00228E8
:101C8000286820F08070286011D02868000106D4F0
:101C90002868800003D4E86820F00300E860E86862
:101CA0001C490840E860FFF713FA044654E0FFF7C8
:101CB0000FFA064605E000BFFFF70AFA801B02286C
:101CC00047D828688001F7D4206BE16A00011038FA
:101CD0000843616BA26B0902120941EA42410843C1
:101CE000A18F0D4A490802EB4151084300E036E05C
:101CF00094F840104908120102EB41610843E86082
:101D000028680CE000100240D83A000824000020A7
:101D100000700040FFFFEEFE0000E0FF19E040F021
:101D200080702860E86840F08070E860FFF7D0F9C4
:101D3000044604E0FFF7CCF9001B022809D8286804
:101D40008001F7D50BE000BFFFF7C2F9001B0228A6
:101D500002D90320BDE8F88328688001F4D400206C
:101D6000F8E7FFE70120F5E74FF0E02104280869D4
:101D700003D020F004000861704740F00400FAE747
:101D800010B5401EB0F1807F01D3012010BD4FF08F
:101D9000E02460610F21601700F062FA0020A0616A
:101DA00007202061002010BD70477047704710B5B4
:101DB000040003D094F83D0010B107E0012010BDED
:101DC000002084F83C00204600F00CF8022084F843
:101DD0003D00211D206800F091FC012084F83D00A9
:101DE000002010BD704700000168CA6842F001027F
:101DF000CA600068826807490A40062A08D08268DB
:101E00000A40B2F5803F03D0016841F00101016052
:101E10000020704707000100704770B50446006855
:101E200001694FF00005C943890715D4C168C9434A
:101E3000890711D4E91E016101202077206880699B
:101E40008007204602D0FFF7E7FF04E000F0A7F884
:101E5000204600F0A5F8257720680169C9434907A5
:101E600017D4C168C943490713D46FF00401016155
:101E7000022020772068806910F4407F204602D03D
:101E8000FFF7CAFF04E000F08AF8204600F088F867
:101E9000257720680169C943090716D4C168C94379
:101EA000090712D46FF0080101610420207720682F
:101EB000C0698007204602D0FFF7AEFF04E000F0C3
:101EC0006EF8204600F06CF8257720680169C94358
:101ED000C90617D4C168C943C90613D46FF01001ED
:101EE0000161082020772068C06910F4407F2046F7
:101EF00002D0FFF791FF04E000F051F8204600F017
:101F00004FF8257720680169C943C90708D1C1681E
:101F1000C943C90704D1891E0161204600F042F877
:101F200020680169C943090609D4C168C943090683
:101F300005D46FF0800101612046FFF736FF20686D
:101F40000169C943C90509D4C168C943090605D453
:101F50006FF4807101612046FFF726FF2068016958
:101F6000C943490609D4C168C943490605D46FF07D
:101F700040010161204600F01FF820680169C94353
:101F800089060BD4C168C943890607D46FF02001C4
:101F900001612046BDE87040FFF708BF70BD704783
:101FA0007047000000680349884201D1FFF796B8E6
:101FB0007047000000480140704710B5040003D08E
:101FC00094F8710010B107E0012010BD002084F8E2
:101FD0007000204600F026F8242084F87100206864
:101FE000016821F001010160204600F079FC012820
:101FF000EBD0606A10B1204600F0E0FB2068416839
:1020000021F4904141602068816821F02A018160BB
:102010002068016841F0010101602046BDE81040E0
:1020200000F030BC00B500680E4987B0884216D178
:102030000D48016E41F480410166006E694600F46E
:1020400080400590C0200090022001900020029066
:1020500003200390072004900448FEF74FFF07B0C9
:1020600000BD00000038014000100240000400489C
:10207000FEE7000010B511498AB00F480860084615
:10208000FEF749FD00B1FEE700240094019402949C
:1020900003942246694609480494FEF7AFFC00B158
:1020A000FEE71022694605480394FEF7A7FC0028C6
:1020B00000D0FEE70AB010BD007400408C00002084
:1020C0002DE9F047344833490024C0E900140125C4
:1020D00005724472CE058027C661C0E90875FEF717
:1020E00053FE00B1FEE72C482A4954308031C0E944
:1020F000001405724472C661C0E90875FEF744FE1B
:1021000000B1FEE724482349A830E03902C04E065A
:1021100000F8045B4FF0200940C08915E0E8029404
:102120004FF0040AE0E802411C4FE0E8025A4FF089
:102130000D0880E8B0011848A830FEF759FD00B13D
:10214000FEE715481349E030C03902C000F8045BCF
:1021500040C0E0E8039440F8044C10C0E0E8024AB4
:1021600080E8B0010C48E030FEF742FD00B1FEE728
:1021700001220B490848FEF7E3FD00B1FEE70648DF
:10218000012208495430FEF7DBFD002800D0FEE7AD
:10219000BDE8F08700610140A000002080FBFFFF48
:1021A000020001000400020070B51B4886B0C16C3B
:1021B00041F00401C164C16C01F004010591C16CDE
:1021C00041F00101C164C16C01F001010591C16CD4
:1021D00041F00201C164C06C104E00F002004FF4E7
:1021E00080450590002229463046FEF76CFF00240A
:1021F0006810CDE90004694609480294FEF77EFEA6
:1022000001200095CDE90104694630460394FEF7AC
:1022100075FE06B070BD00000010024000040048CA
:10222000000800480C4810B50A4901604FF4E1313C
:102230004160002181600C22C160C0E9041281610B
:10224000C16101624162FFF7B8FE002800D0FEE7DD
:1022500010BD000000380140B8010020FEE77047C3
:102260000907090E002806DA00F00F0000F1E0204F
:1022700080F8141D704700F1E02080F800147047CA
:102280002DE9F041444C05468846E0680026810768
:1022900028680DD0E16801F00301814216D1A8B190
:1022A000E0686968C0F30210401C88420ED120E04B
:1022B000012804D0022805D0032807D108E02168AE
:1022C000890701E021684905002907DB01265FE055
:1022D0002168890302D421684903F5E7E1686A6847
:1022E0006FF00F0321F0730103EB0212114301435E
:1022F000E160206820F080602060FEF7E9FE07467C
:1023000005E000BFFEF7E4FEC01B022837D82068B6
:102310000001F7D4B8F1000F18D0B8F1010F1ED0AA
:10232000287D4FF07E41400801EB4060A96840EAFB
:1023300001202169194A114008432061206840F0BA
:1023400080602060FEF7C4FE07461AE0A868E968CE
:102350000002090940EA41402169114AEBE7288A55
:102360001049400801EB4050A96840EA012021696A
:102370000D4AE0E7FEF7ACFEC01B022801D9032698
:1023800006E020680001F5D52069A96908432061AD
:102390003046BDE8F081000000100240FF80FFF9E8
:1023A000FF80FDFF0000E0FFFF809FFF2DE9F0416F
:1023B0003D4C06468846E0680025810730680DD010
:1023C000E16801F00301814216D1A8B1E0687168AB
:1023D000C0F30210401C88420ED120E0012804D036
:1023E000022805D0032807D108E02168890701E009
:1023F00021684905002907DB012551E0216889038F
:1024000002D421684903F5E7E16872686FF00F03B1
:1024100021F0730103EB021211430143E1602068D4
:1024200020F080502060FEF753FE074605E000BF15
:10243000FEF74EFEC01B022829D820688000F7D482
:10244000B8F1000F15D0307C4FF07E41400801EB11
:102450004060B16840EA01206169144A11400843B4
:102460006061206840F080502060FEF731FE074632
:102470000FE0B068F1680002090940EA4140616973
:102480000B4AEBE7FEF724FEC01B022801D9032507
:1024900006E020688000F5D56069716908436061D5
:1024A0002846BDE8F081000000100240FF80FFF9DF
:1024B000FF80FDFFF8B51C4D06460024A86DC00046
:1024C00002D5FEF709FF0DE0A86D40F08050A86529
:1024D000A86D00F080500090FEF7FEFEA96D21F07F
:1024E0008051A965B0F5007F04D0802E07D94FF048
:1024F00003040AE0802E08D9A02E01D804E001D1FF
:10250000022402E0702E00D101240848016821F065
:10251000070121430160006800F00700A04201D0DC
:102520000120F8BD0020F8BD00100240002002404C
:102530002DED088BB7EE008A2A4D2B4C9FED2BBB5F
:10254000DFED2C8AA068A84203DB9FED2B0A84ED07
:10255000020AD4ED020A94ED001A80EE810A10EE10
:10256000100AFDF7A0FF41EC190B6068FDF79BFF17
:1025700041EC1A0BB0EE4B0AF0EE6B0A00F034FBA4
:1025800053EC1A2B51EC100BFDF718FF53EC192BE1
:10259000FDF714FFFDF79AFF00EE100AFDF77EFE2F
:1025A000D4ED020A30EE080A002270EE880A1146C5
:1025B00020EE280AC4ED020A104884ED030ABCEE9E
:1025C000C00A10EE103AFEF7DBFA94ED030A00227F
:1025D0001021BCEEC00A094810EE103AFEF7D0FAFE
:1025E000B0E700000000FA460000002000000000F4
:1025F0000000F0BF00000045000000008C0000203B
:1026000000F091BDF0B5B9B0102001250024229052
:10261000CDE9285402266020CDE92C652A90282097
:102620000727CDE92E50CDE93076329622A8FFF764
:1026300065F900B1FEE70F2033900320CDE93404A3
:102640003694042133A83794FFF726F800B1FEE74B
:1026500015481994CDE9000520942020CDE90250B9
:10266000C0020E94CDE90660CDE904766846FEF717
:102670003BFE00B1FEE74FF40070FEF7FBFD00B13A
:10268000FEE7FFF7B3F84FF47A71B0FBF1F0FFF714
:1026900077FB0420FFF768FB00220F21501EFEF796
:1026A000B7FD39B0F0BD0000010801000D48016818
:1026B00041F4700101600C48016841F001010160C2
:1026C000002181600268094B1A4002608214C260D6
:1026D000026822F48022026081610249C0038039CD
:1026E0000860704788ED00E000100240FFFFF6EA46
:1026F0000148FFF792BB0000300200202DE9F047AF
:102700000268264B264D274E274F284C4FF0804A13
:10271000984209D0504507D0A84205D0B04203D016
:10272000B84201D0A04204D122F0700C4A6842EABB
:102730000C02DFF87CC0DFF87C80DFF87C909842E8
:102740000FD050450DD0A8420BD0B04209D0B842AE
:1027500007D0A04205D0604503D0404501D0484590
:1027600003D122F44075CA682A434D6922F08002E1
:102770002A4302608A68C2620A688262984207D06D
:10278000A04205D0604503D0404501D0484501D165
:102790000969016301214161BDE8F087002C014016
:1027A0000004004000080040000C004000340140DC
:1027B00000400140004401400048014090F82410CE
:1027C000C90706D001684A68836A22F400321A43B6
:1027D0004A6090F82410890706D501684A68C36AE0
:1027E00022F480321A434A6090F82410490706D533
:1027F00001684A68036B22F480221A434A6090F809
:102800002410090706D501684A68436B22F4004288
:102810001A434A6090F82410C90606D501688A68F0
:10282000836B22F480521A438A6090F82410890640
:1028300006D501688A68C36B22F400521A438A6085
:1028400090F82410490611D501684A68036C22F4F7
:1028500080121A434A60016CB1F5801F06D10168ED
:102860004A68436C22F4C0021A434A6090F824106C
:10287000090606D501684A68806C22F400220243EA
:102880004A607047F8B5002604464667FEF720FC0C
:102890000546206800686FF07E47000708D52B4684
:1028A00000224FF400112046009700F069F960B94A
:1028B0002068006840070AD52B4600224FF48001AB
:1028C0002046009700F05CF908B10320F8BD2020F5
:1028D00084F8710084F8720084F870600020F8BDFC
:1028E0002DE9F0410446016880682369E6691843D0
:1028F00063691025002733431843954A0B68954EAA
:10290000334003430B6020684168E36821F4405181
:10291000194341602168A069914201D0236A18439C
:102920008B6823F4306303438B608B4B21688B48A7
:1029300099420DD1D0F8880010F0030006D001288C
:102940005AD0022856D0032859D157E0012556E025
:10295000834B99420BD1D0F8880010F00C0047D07F
:10296000042849D0082845D00C2848D146E07D4BA2
:1029700099420BD1D0F8880010F0300038D01028E0
:102980003AD0202836D0302839D137E0764B9942DA
:102990000BD1D0F8880010F0C00029D040282BD0EF
:1029A000802827D0C0282AD128E0704B99420ED128
:1029B000D0F8880010F440701AD0B0F5807F1BD09A
:1029C000B0F5007F16D0B0F5407F18D116E09142E7
:1029D00015D1D0F8880010F4406009D0B0F5806FB0
:1029E0000AD0B0F5006F05D0B0F5406F07D105E013
:1029F000002504E0022502E0042500E008255C4BE8
:102A000000264FF4004091423DD135B1022D07D050
:102A1000042D07D0082D10D107E0FEF7EDFE03E0EE
:102A2000184602E0FEF708FFA8B3626802EB420115
:102A3000814202D8B0EB023F01D9012775E0DFF8EF
:102A400034815DB1022D0CD0042D13D0082DF4D1AA
:102A500050082905401846F1000105E0FEF7CCFEBC
:102A60000AE050084449F5E70023FDF761FCA0F5B2
:102A7000407156E0FEF7E0FE6268010E0302500866
:102A800018187141F0E7E1694FF6EF7881422FD1D4
:102A9000092DD2D200E048E0DFE805F00609200564
:102AA000230505052600C8E7FEF7A6FE01E0FEF7B0
:102AB000B3FE4100D4F8040001EB5001B1FBF0F08B
:102AC00080B2A0F110014145B7D84FF6F071014036
:102AD000C0F3420001432068C16026E027496068D6
:102AE000EAE7FEF7A9FEE4E74FF480316068E3E728
:102AF000092DA2D2DFE805F006091E05220505050D
:102B000025009AE7FEF778FE01E0FEF785FE014614
:102B1000606801EB500100BFB1FBF0F080B2A0F1A2
:102B20001001414589D82168C86026663846666626
:102B3000BDE8F081606803EB5001EDE7FEF77CFE35
:102B4000E5E7616800EB5100B0FBF1F0E6E700005B
:102B500000800040F369FFEF0038014000100240A0
:102B60000044004000480040004C0040005000403D
:102B70000024F400FFFC0F00000024F40048E801EA
:102B80002DE9F041984617460E460446069D1DE085
:102B9000681C1BD02DB1FEF79BFAA0EB0800A842E1
:102BA00014D92068016821F4D0710160206881681F
:102BB00021F001018160202084F8710084F8720006
:102BC000002084F870000320BDE8F0812068C0690F
:102BD00036EA000004D00020B842D9D00020F3E744
:102BE0000120F9E7FEE7000010B5B94A2DED020B10
:102BF0002DED0C8B82B00F9921F000409FEDB6CBEC
:102C000090422CDBA0F140530E9AA3F17F631A434C
:102C10000FD0B349884202DC16D10E98A0B19DEDC9
:102C20000E0B02B000F08CB902B0BDE8104000F00D
:102C300015BA0029C1BF9FEDAC0B02B0BDEC0C8BE7
:102C400002B0C8BF10BD16E0012000F031FA02B09A
:102C500000F07CB902B0BDE8104000F009BAA44A07
:102C60009FEDA59B9FEDA6AB90425EDAA6499FED36
:102C7000A8CB814208DBB0EE4C0AF0EE6C0A02B041
:102C800000F06AB902B010BD9DED0E0B53EC102B95
:102C900051EC100BFDF792FB41EC180B9E480621FE
:102CA000B0EE480AF0EE680A784400F05BF953ECA5
:102CB000182B51EC100BFDF781FB41EC1B0B9748D7
:102CC000B0EE480AF0EE680A0421784400F04AF9B0
:102CD00053EC182B51EC100BFDF770FB53EC192B38
:102CE000FDF7C3FC41EC100B51EC1B0B53EC102B0C
:102CF000FDF76AFD41EC100B53EC102B9DED0E0B14
:102D000051EC100BFDF75AFB53EC1A2BFDF751FD5C
:102D10009DED0E1B53EC112BFDF74BFD53EC1C2BC3
:102D2000FDF747FD41EC100BA9E79FED7D8B9FED73
:102D30007EBB9DED0E0B002953EC192B51EC100BB3
:102D400052DAFDF792FC53EC182BFDF737FB41EC00
:102D5000180B77480621B0EE480AF0EE680A78446E
:102D600000F000F953EC182B51EC100BFDF726FB8B
:102D700041EC1D0B6F48B0EE480AF0EE680A0421E2
:102D8000784400F0EFF853EC182B51EC100BFDF7E2
:102D900015FB53EC192BFDF768FC41EC190B51ECBA
:102DA000180B00F0C7FB41EC180B53EC192B51EC3E
:102DB0001D0BFDF709FD53EC182BFDF7FFFA53EC43
:102DC0001A2BFDF7F3FC41EC100B51EC180B53ECF4
:102DD000102BFDF74AFC53EC1B2BFDF7EFFA53ECDD
:102DE0001C2BFDF7E6FC6DE0FDF7E3FC53EC182B24
:102DF000FDF7E4FA41EC180B00F09CFB41EC1A0BD8
:102E000000208DED00AB00909DED000B51EC1A0BF6
:102E100053EC102BFDF729FC9DED000B41EC1C0B36
:102E200053EC102B51EC100BFDF7C8FA53EC182B98
:102E3000FDF7BFFC53EC1C2BFDF7C6FC41EC1C0B53
:102E40003D48B0EE480AF0EE680A0621784400F0EA
:102E500089F853EC182B51EC100BFDF7AFFA41EC4D
:102E60001D0B3648B0EE480AF0EE680A042178449B
:102E700000F078F853EC182B51EC100BFDF79EFA8C
:102E800053EC192BFDF7F1FB41EC100B51EC1D0B32
:102E900053EC102BFDF798FC53EC1A2BFDF78EFA30
:102EA00053EC1C2BFDF7E1FB41EC100B53EC102B0A
:102EB0009DED000B51EC100BFDF7D7FB53EC1B2BDA
:102EC000FDF77CFA41EC100BD9E600000000000091
:102ED0000000F03F00000000182D4454FB21094081
:102EE0000000F07F00000000000000000000000073
:102EF0000000E03F00000000000000000000F03F84
:102F0000075C143326A6913C0000603C00000000E2
:102F1000182D4454FB21F93F7C1600008A1600004E
:102F2000000000000000E03F000000000000004042
:102F3000C6150000D4150000D8140000E6140000E7
:102F4000BDEC088BBDEC04CBFFF76EBEBDEC088B6F
:102F5000BDEC04CBFFF77EBEBDEC088BBDEC04CB13
:102F6000FFF790BE70B504462DED028B4D1E00EBB1
:102F7000C500B0EE408AF0EE608A90ED000B35F0AF
:102F8000060017D053EC182B51EC100BFDF716FA76
:102F900041EC100B6D1E04EBC50090ED001B51ECD5
:102FA000100B53EC112BFDF760FB41EC100B35F0CF
:102FB0000600E7D1022D36D0042D1CD0062D1CBFF3
:102FC000BDEC028B70BD53EC182B51EC100BFDF7D0
:102FD000F5F994ED0A1B53EC112BFDF746FB53EC6E
:102FE000182BFDF7EBF994ED081B53EC112BFDF7B3
:102FF0003CFB41EC100B53EC182B51EC100BFDF784
:10300000DDF994ED061B53EC112BFDF72EFB53EC71
:10301000182BFDF7D3F994ED040B53EC102BFDF7AF
:1030200024FB41EC100B53EC182B51EC100BFDF76B
:10303000C5F994ED021B53EC112BFDF716FB53EC75
:10304000182BFDF7BBF994ED001B53EC112BFDF78A
:103050000CFBBDEC028B41EC100B70BD10B553ECBA
:10306000102B51EC100BFDF700FB41EC100B10BDC9
:103070009FED050B10B553EC102B51EC100BFDF729
:10308000A3FB41EC100B10BD00000000000000008D
:1030900002E008C8121F08C1002AFAD17047704721
:1030A000002001E001C1121F002AFBD1704700007F
:1030B00001490860704700008800002086B0FEF7D4
:1030C00015F8FFF79FFAFFF76FF8FFF7ABF8FEF779
:1030D000F7FFFEF7CFFF00210A48FDF75EFD102144
:1030E0000848FDF75AFD142207496846FDF754F9D0
:1030F0000021684600F021F80449086100F00EF84C
:10310000FEE700008C000020C43A00080000002008
:1031100001460020842900D0C81C704710B500F07B
:10312000DFFA002010BD10B500F0F8FB012803D035
:10313000BDE8104000F0AEBB10BD3EB504460D46E4
:10314000B0F90800FFF7E4FF02A9CDE90001208AE9
:103150002B4682B2D4E9001000F0B2FB012801D066
:1031600000203EBD02983EBD2DE9F041054600F02D
:1031700045FA2E4CA068401CA06020682C4F10B16E
:10318000606940B32DE02560A068012829D10026A0
:1031900006EB860007EB800000F015FA761C072E80
:1031A000F6D323488C3000F00EFA2148A03000F00E
:1031B0000AFA1F48B43000F006FA1D48C83000F083
:1031C00002FA1B48DC3000F0FEF919488C306063CD
:1031D0001430A06305E02068E96AC06A884200D81C
:1031E0002560606A401C6062E96A012022698840AB
:1031F0001043206101EB810007EB8000291D00F0E6
:10320000F0F900F01BFA606900280CD02068E96A28
:10321000C06A884207D207494FF080500860BFF368
:103220004F8FBFF36F8FBDE8F08100004C0000208E
:10323000480E002004ED00E070B5114E114C17E06F
:1032400000F082FA3068B8B100F0DAFB00F0D6F98D
:10325000F068C568281D00F0A4F9A068401EA060B1
:103260006068401E606000F0E9F9284600F00CF844
:1032700060680028E4D170BD00F0C2FBF8E70000F0
:10328000100F00204C00002010B50446006B00F029
:10329000E9F92046BDE8104000F0E4B90F4840F6D7
:1032A000B831420705D0C01D0C4A20F00700821A31
:1032B000891A0B4A00230144C2E900030839103A75
:1032C00021F0070111604B600B600B1AC0E900137D
:1032D00093604FF000405360D06070479002002030
:1032E00038000020074C4FF08056074DFFF7A4FF31
:1032F00020680128FAD92E60BFF34F8FBFF36F8F7C
:10330000F4E70000480E002004ED00E02DE9F0474E
:103310009A46DDE9098481466FF00303206B03EBD5
:1033200082021044089D20F00706700707D0502045
:1033300080F31188BFF34F8FBFF36F8FFEE7231821
:103340000A5C83F834200A5C12B1401C1028F6D3C2
:10335000002784F84370072D00D30625E562C4E9F1
:103360001157201D00F03AF904F1180000F036F969
:103370002461C5F107006462A061E76484F85070BD
:1033800052464946304600F0BFF82060B8F1000FC1
:1033900001D0C8F80040BDE8F087000030B5114901
:1033A00000E011460A688242FBD34B685C188442F5
:1033B00003D1406818444860084643681C1894428A
:1033C00009D1084C103C2468A24209D052681A4422
:1033D00042600A6812680260814200D0086030BD15
:1033E0000460F9E7380000200648416B096829B1FC
:1033F000416BC968C9684968816270474FF0FF3105
:10340000FAE700004C00002008484068401C4FF0DC
:10341000500080F3118804D0BFF34F8FBFF36F8F3C
:10342000FEE7BFF34F8FBFF36F8FFEE74000002032
:103430002DE9F0410546002700F086F9314E30684D
:1034400008B9FFF72BFFF06805424BD1C5B308352B
:1034500068070ED005F00700C0F1080005446807B2
:1034600007D0502080F31188BFF34F8FBFF36F8FC9
:10347000FEE72DB37068854234D8224810300146EB
:103480000C6801E020460C466168A94202D221681E
:103490000029F7D131688C4224D007682168016087
:1034A00060680837411B10290FD96019420708D0FE
:1034B000502080F31188BFF34F8FBFF36F8FFEE76B
:1034C00010E041606560FFF769FF61687068401A4D
:1034D0007060B268904200D2B060F0680143002092
:1034E000C4E9000100F08CFA780707D0502080F37F
:1034F0001188BFF34F8FBFF36F8FFEE73846BDE8EB
:10350000F08100002800002010B5031F4FF08074E8
:103510001C601B1F21F001011960191F044B0B6077
:1035200014390A60091F6FF0020244380A6010BDA6
:103530000934000800B52DED048B83B041EC190B64
:10354000FDF7D6F941EC180B18EE100A18EE901A98
:103550008DED008B002818BF0120084320F00040AB
:10356000C0F17F6000F1E040C00F14D019EE101AD6
:1035700019EE900A8DED009B002918BF0121084328
:1035800020F00040C0F17F6000F1E040C00F04BFB8
:103590000120FFF78DFD51EC180B03B0BDEC048B3F
:1035A00000BDD0E9013201699A60D0E901235A6077
:1035B0004A68824201D182684A600022026108683A
:1035C000401E0860704700F108014FF0FF32C0E96B
:1035D0000112C16001610021016070470021016199
:1035E000704742684A6093688B6093685960916045
:1035F00008610168491C016070470000502080F399
:103600001188BFF34F8FBFF36F8F0A494868401C82
:10361000486001280CD10848006810F0FF0F07D05F
:10362000502080F31188BFF34F8FBFF36F8FFEE7F9
:10363000704700004000002004ED00E008494868A1
:1036400028B1401E486001D180F311887047502096
:1036500080F31188BFF34F8FBFF36F8FFEE7000039
:103660004000002070B5002827D0144DA0F10804B8
:103670006168E868014207D1502080F31188BFF3E8
:103680004F8FBFF36F8FFEE722683AB1502080F36F
:103690001188BFF34F8FBFF36F8FFEE781436160E7
:1036A00000F052F860686968084468602046FFF7D7
:1036B00075FEBDE8704000F0A3B970BD2800002081
:1036C00006484FF47A710068B0FBF1F14FF0E0204A
:1036D000491E41610721016170470000240000205C
:1036E0001CB515480024CDE900402346802213A1D3
:1036F000144800F0E5F8012809D0401C1AD15020E8
:1037000080F31188BFF34F8FBFF36F8FFEE7502018
:1037100080F31188BFF34F8FBFF36F8F06484FF0D0
:10372000FF312C38816201214161C460BDE81C4039
:1037300000F040B81CBD00007800002049444C4512
:1037400000000000E53200080248016B491C0163DB
:10375000704700004C0000201448016B11B101219A
:10376000C16170470021C1610169B1FA81F1C1F104
:103770001F0101EB81020E4951F822306BB101EBC0
:10378000820101F108034A6852684A609A4201D1F5
:1037900052684A60D16801607047502080F31188F8
:1037A000BFF34F8FBFF36F8FFEE700004C00002088
:1037B000480E00201CB532480168324A914207D1B8
:1037C000502080F31188BFF34F8FBFF36F8FFEE758
:1037D00000682C49491E884207D1502080F3118887
:1037E000BFF34F8FBFF36F8FFEE727490878019033
:1037F000FF20087008788DF800009DF800009DF803
:10380000002000F0F000904207D0502080F3118893
:10381000BFF34F8FBFF36F8FFEE79DF800001B4A89
:1038200000F0500010700720906005E09DF8003017
:103830005B008DF80030401E9DF800301B06F5D46B
:10384000000200F4E0609060019808700C4820309D
:10385000016841F470010160016841F0704101604C
:10386000FFF72EFF00205060FCF7B8FC0848016805
:1038700041F040410160FCF7A1FC00201CBD0000AC
:1038800000ED00E071C20F4100E400E040000020C4
:1038900034EF00E010B5502080F31188BFF34F8F54
:1038A000BFF36F8F00F048F818B104494FF0805013
:1038B0000860002080F3118810BD000004ED00E0D6
:1038C0002DE9FF5F8346DDE90E87994616468A4655
:1038D0009000FFF7ADFD05001AD05420FFF7A8FDBA
:1038E000040012D025630021CDE90241CDE9008713
:1038F0004B46324651465846FFF708FD2046FFF733
:1039000033FC012004B000F006B82846FFF7AAFEF9
:103910004FF0FF30F6E730BCBDE8C09F0548416975
:1039200019B1006B18B100207047012070470220C8
:10393000704700004C0000202DE9F0412E4C00277C
:10394000206B40B1A069401CA061E06900B1012773
:103950003846BDE8F081E668761CE66013D1606BFE
:10396000006838B1502080F31188BFF34F8FBFF348
:103970006F8FFEE7606BA16B6163A063206A401CE0
:103980002062FFF731FDA06ADFF87080864209D31C
:10399000606B006880B1606BC068C568686886420B
:1039A0000DD2A0622068C06A00EB800158F82100A7
:1039B0000128CAD90127C8E74FF0FF30F1E7281DD9
:1039C000FFF7EFFDA86A18B105F11800FFF7E9FD50
:1039D000E86A0121226981401143216100EB8001E5
:1039E00008EB8100291DFFF7FCFDE86A2168C96A20
:1039F0008842CDD30127CBE74C000020480E0020A1
:103A00002DE9F0472C4D00242746286B38B1FFF7ED
:103A1000F5FD286B401E2863286B40B146E050201E
:103A200080F31188BFF34F8FBFF36F8FFEE7A96854
:103A3000224E0120D1B3A6F1B40980463068E8B126
:103A4000F068C46804F11800FFF7ABFD201DFFF714
:103A5000A8FDE06A2A6908FA00F11143296100EB28
:103A6000800109EB8100211DFFF7BBFDE06A296899
:103A7000C96A8842E2D3C5F81C80DFE70CB1FFF7C2
:103A8000B3FCAC6944B14646FFF756FF00B1EE61A6
:103A9000641EF9D10020A861E86938B108490127FE
:103AA00038070860BFF34F8FBFF36F8FFFF7C6FD76
:103AB0003846BDE8F08700004C000020FC0E0020D6
:103AC00004ED00E078430008312500080000000004
:103AD0000000000080000000000000000000000066
:103AE0000102030406070809A0860100400D030037
:103AF000801A060000350C0040420F0080841E0032
:103B000000093D0000127A000024F40000366E0126
:103B10000048E801006CDC02000000000102030420
:103B200000000000920E493CB10AC93C2BC3163D6F
:103B30002EFB483D752B7B3D04A9963D80B6AF3DDD
:103B400036BDC83D2FBCE13D73B2FA3D87CF093E7B
:103B50008340163EB5AB223EA2102F3ECF6E3B3EB9
:103B6000C2C5473E0115543E135C603E7F9A6C3ED1
:103B7000CCCF783EC07D823E938E883E229A8E3E88
:103B800032A0943E86A09A3EE59AA03E128FA63EB1
:103B9000D47CAC3EEF63B23E2A44B83E491DBE3EE3
:103BA00015EFC33E53B9C93ECA7BCF3E4136D53E21
:103BB00080E8DA3E4F92E03E7533E63EBBCBEB3E0B
:103BC000EA5AF13ECBE0F63E275DFC3EE4E7003FDB
:103BD0003D9C033F824B063F9BF5083F6B9A0B3F92
:103BE000DA390E3FCDD3103F2A68133FD9F6153F7F
:103BF000C07F183FC6021B3FD17F1D3FCBF61F3F42
:103C00009967223F25D2243F5636273F1594293FF6
:103C10004AEB2B3FDE3B2E3FBB85303FC9C8323FCE
:103C2000F304353F233A373F4268393F3B8F3B3FF0
:103C3000F9AE3D3F67C73F3F70D8413F01E2433F88
:103C400003E4453F65DE473F12D1493FF8BB4B3F98
:103C5000029F4D3F207A4F3F3D4D513F4918533F02
:103C600031DB543FE595563F5348583F6AF2593F80
:103C70001A945B3F532D5D3F05BE5E3F2146603F7A
:103C800097C5613F5A3C633F59AA643F880F663F1E
:103C9000D86B673F3CBF683FA7096A3F0C4B6B3F3F
:103CA0005E836C3F93B26D3F9ED86E3F73F56F3F5E
:103CB0000809713F5213723F4714733FDD0B743F85
:103CC0000BFA743FC6DE753F07BA763FC58B773F68
:103CD000F853783F9812793F9DC7793F02737A3F36
:103CE000BE147B3FCDAC7B3F283B7C3FC9BF7C3FB4
:103CF000AC3A7D3FCCAB7D3F23137E3FB0707E3F1F
:103D00006DC47E3F580E7F3F6D4E7F3FAB847F3F3B
:103D10000FB17F3F97D37F3F43EC7F3F11FB7F3F46
:103D20000000803F11FB7F3F43EC7F3F97D37F3FF5
:103D30000FB17F3FAB847F3F6D4E7F3F580E7F3F7B
:103D40006DC47E3FB0707E3F23137E3FCCAB7D3F82
:103D5000AC3A7D3FC9BF7C3F283B7C3FCDAC7B3F2D
:103D6000BE147B3F02737A3F9DC7793F9812793F1B
:103D7000F853783FC58B773F07BA763FC6DE753F6D
:103D80000BFA743FDD0B743F4714733F5213723FBD
:103D90000809713F73F56F3F9ED86E3F93B26D3F38
:103DA0005E836C3F0C4B6B3FA7096A3F3CBF683F8B
:103DB000D86B673F880F663F59AA643F5A3C633F00
:103DC00097C5613F2146603F05BE5E3F532D5D3F75
:103DD0001A945B3F6AF2593F5348583FE595563F66
:103DE00031DB543F4918533F3D4D513F207A4F3FFF
:103DF000029F4D3FF8BB4B3F12D1493F65DE473F25
:103E000003E4453F01E2433F70D8413F67C73F3F6E
:103E1000F9AE3D3F3B8F3B3F4268393F233A373F46
:103E2000F304353FC9C8323FBB85303FDE3B2E3FF0
:103E30004AEB2B3F1594293F5636273F25D2243F86
:103E40009967223FCBF61F3FD17F1D3FC6021B3F24
:103E5000C07F183FD9F6153F2A68133FCDD3103FD6
:103E6000DA390E3F6B9A0B3F9BF5083F824B063FBA
:103E70003D9C033FE4E7003F275DFC3ECBE0F63E80
:103E8000EA5AF13EBBCBEB3E7533E63E4F92E03E45
:103E900080E8DA3E4136D53ECA7BCF3E53B9C93EB3
:103EA00015EFC33E491DBE3E2A44B83EEF63B23E05
:103EB000D47CAC3E128FA63EE59AA03E86A09A3EE8
:103EC00032A0943E229A8E3E938E883EC07D823EE2
:103ED000CCCF783E7F9A6C3E135C603E0115543E19
:103EE000C2C5473ECF6E3B3EA2102F3EB5AB223E31
:103EF0008340163E87CF093E73B2FA3D2FBCE13DA9
:103F000036BDC83D80B6AF3D04A9963D752B7B3DBF
:103F10002EFB483D2BC3163DB10AC93C920E493CCD
:103F200000000000920E49BCB10AC9BC2BC316BDEB
:103F30002EFB48BD752B7BBD04A996BD80B6AFBDD9
:103F400036BDC8BD2FBCE1BD73B2FABD87CF09BE77
:103F5000834016BEB5AB22BEA2102FBECF6E3BBEB5
:103F6000C2C547BE011554BE135C60BE7F9A6CBECD
:103F7000CCCF78BEC07D82BE938E88BE229A8EBE84
:103F800032A094BE86A09ABEE59AA0BE128FA6BEAD
:103F9000D47CACBEEF63B2BE2A44B8BE491DBEBEDF
:103FA00015EFC3BE53B9C9BECA7BCFBE4136D5BE1D
:103FB00080E8DABE4F92E0BE7533E6BEBBCBEBBE07
:103FC000EA5AF1BECBE0F6BE275DFCBEE4E700BFD7
:103FD0003D9C03BF824B06BF9BF508BF6B9A0BBF8E
:103FE000DA390EBFCDD310BF2A6813BFD9F615BF7B
:103FF000C07F18BFC6021BBFD17F1DBFCBF61FBF3E
:10400000996722BF25D224BF563627BF159429BFF2
:104010004AEB2BBFDE3B2EBFBB8530BFC9C832BFCA
:10402000F30435BF233A37BF426839BF3B8F3BBFEC
:10403000F9AE3DBF67C73FBF70D841BF01E243BF84
:1040400003E445BF65DE47BF12D149BFF8BB4BBF94
:10405000029F4DBF207A4FBF3D4D51BF491853BFFE
:1040600031DB54BFE59556BF534858BF6AF259BF7C
:104070001A945BBF532D5DBF05BE5EBF214660BF76
:1040800097C561BF5A3C63BF59AA64BF880F66BF1A
:10409000D86B67BF3CBF68BFA7096ABF0C4B6BBF3B
:1040A0005E836CBF93B26DBF9ED86EBF73F56FBF5A
:1040B000080971BF521372BF471473BFDD0B74BF81
:1040C0000BFA74BFC6DE75BF07BA76BFC58B77BF64
:1040D000F85378BF981279BF9DC779BF02737ABF32
:1040E000BE147BBFCDAC7BBF283B7CBFC9BF7CBFB0
:1040F000AC3A7DBFCCAB7DBF23137EBFB0707EBF1B
:104100006DC47EBF580E7FBF6D4E7FBFAB847FBF37
:104110000FB17FBF97D37FBF43EC7FBF11FB7FBF42
:10412000000080BF11FB7FBF43EC7FBF97D37FBFF1
:104130000FB17FBFAB847FBF6D4E7FBF580E7FBF77
:104140006DC47EBFB0707EBF23137EBFCCAB7DBF7E
:10415000AC3A7DBFC9BF7CBF283B7CBFCDAC7BBF29
:10416000BE147BBF02737ABF9DC779BF981279BF17
:10417000F85378BFC58B77BF07BA76BFC6DE75BF69
:104180000BFA74BFDD0B74BF471473BF521372BFB9
:10419000080971BF73F56FBF9ED86EBF93B26DBF34
:1041A0005E836CBF0C4B6BBFA7096ABF3CBF68BF87
:1041B000D86B67BF880F66BF59AA64BF5A3C63BFFC
:1041C00097C561BF214660BF05BE5EBF532D5DBF71
:1041D0001A945BBF6AF259BF534858BFE59556BF62
:1041E00031DB54BF491853BF3D4D51BF207A4FBFFB
:1041F000029F4DBFF8BB4BBF12D149BF65DE47BF21
:1042000003E445BF01E243BF70D841BF67C73FBF6A
:10421000F9AE3DBF3B8F3BBF426839BF233A37BF42
:10422000F30435BFC9C832BFBB8530BFDE3B2EBFEC
:104230004AEB2BBF159429BF563627BF25D224BF82
:10424000996722BFCBF61FBFD17F1DBFC6021BBF20
:10425000C07F18BFD9F615BF2A6813BFCDD310BFD2
:10426000DA390EBF6B9A0BBF9BF508BF824B06BFB6
:104270003D9C03BFE4E700BF275DFCBECBE0F6BE7C
:10428000EA5AF1BEBBCBEBBE7533E6BE4F92E0BE41
:1042900080E8DABE4136D5BECA7BCFBE53B9C9BEAF
:1042A00015EFC3BE491DBEBE2A44B8BEEF63B2BE01
:1042B000D47CACBE128FA6BEE59AA0BE86A09ABEE4
:1042C00032A094BE229A8EBE938E88BEC07D82BEDE
:1042D000CCCF78BE7F9A6CBE135C60BE011554BE15
:1042E000C2C547BECF6E3BBEA2102FBEB5AB22BE2D
:1042F000834016BE87CF09BE73B2FABD2FBCE1BDA5
:1043000036BDC8BD80B6AFBD04A996BD752B7BBDBB
:104310002EFB48BD2BC316BDB10AC9BC920E49BCC9
:104320000000008000000000555555555555C53F0B
:104330007D6FEB0312D6D4BF5544880E55C1C93FDB
:104340003B8F68B52882A4BF88B20175E0EF493F72
:1043500009F7FD0DE13D023F4B2D8A1C273A03C0B2
:10436000C88A599CE52A004059018D1B6C06E6BF9E
:1043700082922EB1C5B8B33F73696E655761766599
:104380005461736B00000000A84300080000002087
:104390008C00000090300008344400088C0000209D
:1043A000AC120000A030000800007A4600005C4318
:1043B00000000000000000000000000000000000FD
:1043C00000000000000000000000000000093D00A7
:1043D00000000000000000000000000000000000DD
:1043E000000000000000000000000000AAAAAAAA25
:1043F00000000000000000000000000000000000BD
:1044000000000000000000000000000000000000AC
:10441000000000000000000000000000000000009C
:10442000000000000000000000000000000000008C
:044430000000000088
:040000050800018965
:00000001FF
