:020000040800F2
:100000002813002079020008BB1B0008491A0008C9
:10001000B91B00088D0300087924000800000000C7
:100020000000000000000000000000009D0100082A
:10003000F503000800000000F1010008951E00080B
:10004000930200089302000893020008930200083C
:10005000930200089302000893020008930200082C
:10006000930200089302000893020008930200081C
:10007000930200089302000893020008930200080C
:1000800093020008930200089302000893020008FC
:1000900093020008930200089302000893020008EC
:1000A0009302000893020008851F000893020008CD
:1000B00093020008930200089302000893020008CC
:1000C00093020008930200089302000893020008BC
:1000D00093020008930200089302000893020008AC
:1000E000930200089302000893020008930200089C
:1000F000930200089302000893020008930200088C
:10010000930200089302000893020008930200087B
:10011000930200089302000893020008930200086B
:10012000930200089302000893020008930200085B
:10013000930200089302000893020008930200084B
:10014000930200089302000893020008930200083B
:10015000930200089302000893020008930200082B
:10016000930200089302000893020008930200081B
:100170009302000893020008000000000000000045
:100180009302000893020008DFF80CD000F0ECF8AE
:100190000048004799240008281300202B4B1968B9
:1001A000086800F058B880F30988BFF36F8F4FF0EC
:1001B000000080F3118870470000000006480068C6
:1001C000006880F3088862B661B6BFF34F8FBFF353
:1001D0006F8F00DF00BF00BF08ED00E0DFF80C000C
:1001E000016841F470010160704700BF88ED00E0D4
:1001F000EFF30980BFF36F8F144B1A681EF0100FD6
:1002000008BF20ED108A20E9F04F106008B44FF0CD
:10021000500080F31188BFF34F8FBFF36F8F02F050
:10022000E7FC4FF0000080F3118808BC19680868EB
:1002300000F016B81EF0100F08BF00F016B880F3DB
:100240000988BFF36F8F704700BF00BF3C000020DC
:10025000EFF30580704730C8B0E8C04FFFF7A3BF89
:1002600030C8B0E8C04FFFF7E5BFB0EC088AB0EC8B
:1002700008CAFFF7E4BF0000064880470648004769
:10028000FEE7FEE7FEE7FEE7FEE7FEE7FEE7FEE746
:10029000FEE7FEE7411F0008890100082DE9F05F35
:1002A0000546002092469B468846064681464024E5
:1002B0001BE0284641464746224600F044F8534694
:1002C0005A46C01A914110D311461846224600F0F2
:1002D0002BF82D1A67EB01084F462246012000211A
:1002E00000F022F817EB00094E41201EA4F1010492
:1002F000DFDC484631462A46434600F000B830BCB1
:10030000BDE8C09F40EA01039B0703D009E008C98C
:10031000121F08C0042AFAD203E011F8013B00F8CA
:10032000013B521EF9D27047202A04DB203A00FA22
:1003300002F1002070479140C2F1200320FA03F33C
:10034000194390407047202A04DB203A21FA02F03A
:100350000021704721FA02F3D040C2F120029140FF
:100360000843194670470000064C074D06E0E06858
:1003700040F0010394E8070098471034AC42F6D3EC
:10038000FFF706FFC42F0008E42F0008FEE7000077
:100390001749884201D10020704715492031884211
:1003A00001D10120704712494031884201D1022019
:1003B00070470F496031884201D1032070470C49D2
:1003C0008031884201D1042070470949A031884218
:1003D00001D1052070470649C031884201D106206D
:1003E00070470349E0318842D5D1072070470000AB
:1003F00000600140704700002DE9F0470446407955
:10040000002715460E46012809D04FF0010984F84F
:100410000590022020713068042803D044E00220B7
:10042000BDE8F0874FF003080DBB00F03DFB074629
:1004300005E000BF00F038FBC01B01280FD8206882
:10044000406B0004F6D4012000F03AFA2168B0694C
:10045000086416E000F028FBC01B012807D92069BA
:1004600040F00800206184F804800320D8E7206869
:10047000406B0028EEDB012000F022FA2168B06911
:1004800048642068816C40F2FF32AA409143F269CF
:10049000AA40114381642068C16CFF22AA409143A5
:1004A000326AAA401143C1643069012808D1226828
:1004B000916B1F20A84081437069A8400843906356
:1004C0002268D06B0721A9408843B368316819437B
:1004D000F3681943A9400143D163206801684FF4D0
:1004E0008042AA40914301602268116840F6FC7086
:1004F000A84081437068A8400843106020680168E4
:10050000C022AA409143016084F8049000206071E9
:1005100086E770B5040003D02079002510B105E00E
:10052000012070BD6571204600F008F8022020719E
:10053000256101202071002070BD000000B5006819
:100540000C4987B0884213D10B48816D41F00051AE
:100550008165806D694600F0005005903020009064
:1005600003200190002002904FF0904000F0B6F977
:1005700007B000BD007400400010024030B5427961
:10058000012A12D0012242710223037103681D68FF
:1005900002FA01F425431D60002901680B6806D0AA
:1005A000C3F383430F2B0AD00DE0022030BDC3F309
:1005B00083030F2B07D14B6843F0010302E04B6824
:1005C00043F002034B60027100214171084630BDC7
:1005D00070B5040006D02068FFF7DAFE374D55F8F5
:1005E000200008B1012070BD204600F06FF83448AB
:1005F0000168491C016000683249012819D132485C
:10060000026822F0804202600268A3681A43026016
:10061000026822F47F0202602279012A05D1026871
:10062000A38901EB03431A430260026842F00042CF
:1006300002602068026822F4714202602268106839
:1006400023691843D4E90536334318431060206802
:10065000026822F00F020260D4E9072002432068FA
:1006600003681A4302602068826822F45F02826095
:1006700020688268636A1A43238D01EB03410A43B1
:1006800082602068416801F007014160E06A216BE7
:10069000000240EAC10120684268114341602068BD
:1006A000016841F080010160012084F83400206875
:1006B000FFF76EFE45F82040002070BD5C02002070
:1006C0000C0000200000FFFF0060014000B5114851
:1006D00087B0416800291BD10168491C01600129CC
:1006E00008D10D48016E41F080710166006E00F086
:1006F000807005904FF4207000900220019000203F
:1007000002900390062004906946044800F0E6F841
:1007100007B000BD04000020001002400010004897
:1007200070B590F84C400023C4B1FF2C16D004687B
:1007300025680C4E3540256004686FF30F01012ACF
:10074000256804D045EA01212160026307E04FF4E7
:10075000802646EA01210D432560F6E7012318466D
:1007600070BD0000FFFFFBF870B5040031D03C49BC
:100770002068884205D1606801282AD0E0680128F5
:1007800027D00125002065642063A56420652046EC
:1007900000F06CF82068016821F400210160207AE3
:1007A00001282068016816D021F000510160607AAC
:1007B00001282068016811D021F40011016020682F
:1007C000016846F2087291430160E068022808D08F
:1007D0000CE0012070BD41F00051E7E741F4001149
:1007E000ECE720680168626911430160207C012800
:1007F000206801682ED021F010010160607C012882
:100800002068016829D021F0200101602068416939
:10081000144A1140416120684169E269124B114359
:10082000228C03EB0242636A5B1E1A43114341614F
:1008300060686063E068A063A069E063207C84F87E
:1008400040002068016841F00101016084F84C50CB
:10085000002070BD41F01001CFE741F02001D4E746
:100860000061014000FF001C0000FFFF00B51148BF
:1008700087B0416800291BD10168491C016001292A
:1008800008D10D48016E41F080710166006E00F0E4
:10089000807005904FF4207000900220019000209D
:1008A00002900390062004906946044800F016F870
:1008B00007B000BD040000200010024000100048F6
:1008C00070B5044600F0F0F80546601C00D0641CCA
:1008D00000F0EAF8401BA042FAD370BD2DE9F84FB2
:1008E000DFF898B100234FF0010C4FF0030A4FF0EE
:1008F0000F090BF1040EB9E00CFA03F4224070D09A
:100900004D68022D01D0122D0ED1DD0800EB8508B7
:10091000D8F820505E07F70E09FA07F6B5430E69BE
:10092000BE402E43C8F8206007685E0091F804803E
:100930000AFA06F508F00308AF4308FA06F848EA91
:100940000708C0F800804F68012F05D0022F03D0A0
:10095000112F01D0122F13D1D0F80880CF6828EAC8
:100960000508B74047EA08078760D0F804800F7988
:1009700028EA0408C7F300179F4047EA08074760C2
:10098000D1F804806FEA0807BF0706D1C76AA743FA
:10099000C8F3C0049C403C43C462C468AC438D6847
:1009A000B5402543C5604C68E4005ED5344C256EE7
:1009B00045F001052566246E23F0030504F00104CB
:1009C0000094304C2E19B4689D072F0F09FA07F5D3
:1009D000AC43B0F1904F05D02B4DA84204D1012576
:1009E0001CE042E0002519E0284DA84201D1022573
:1009F00014E0274DA84201D103250FE0254DA84260
:100A000001D104250AE0244DA84201D1052505E0C5
:100A1000224DA84201D1062500E00725BD4025430F
:100A2000B560DBF800405D464E689443F60300D5A0
:100A300014432C60DEF8004075464E689443B603BC
:100A400000D514432C600D4D08352C684E68944336
:100A5000F60200D514432C60084D0C352C684E6806
:100A60009443B60200D514432C605B1C0A6832FA2A
:100A700003F57FF441AF00F013B80000000401401B
:100A80000010024000000140000400480008004837
:100A9000000C0048001000480014004800180048EE
:100AA00018BCBDE8E08F00000148006870470000F6
:100AB0001000002002480168491C016070470000D6
:100AC0001000002010B5032000F0AEF8002000F068
:100AD00005F800F03DF8002010BD000000B501460B
:100AE00087B000221A2000F07FF81A2000F070F87A
:100AF0001348016E41F480210166006E05A900F4DF
:100B000080200690684600F03DFB00F071FB0D4927
:100B10000D4AB0FBF1F10D48491E0260416040F200
:100B2000E7320021C0E90321816000F02CFE10B102
:100B3000012007B000BD054800F042FEF9E70000C3
:100B40000010024040420F00004801401C020020FB
:100B50001E4808B5016E41F001010166016E01F009
:100B600001010091816D41F080518165806D00F03F
:100B700080500090032000F057F8002211466FF0DB
:100B80000B0000F031F8002211466FF00A0000F06F
:100B90002BF8002211466FF0090000F025F8002222
:100BA0001146501F00F020F800221146101F00F0DF
:100BB0001BF800220F21901E00F016F800220F21D2
:100BC000BDE80840501E00F00FB8000000100240C1
:100BD00000F01F02012191404009800000F1E02057
:100BE000C0F8001170470000F0B40E4B1B680C46B3
:100BF000C3F30223C3F10705042D00D90425191DF1
:100C0000072901D2002300E0DB1E012606FA05F1C8
:100C1000491E214099409E40761E16403143F0BC4B
:100C200000F0CCBF0CED00E0064900F007020868B8
:100C30004FF6FF03184040EA0220034A10430860C1
:100C4000704700000CED00E00000FA051549B0F512
:100C5000007F0868C0F3412009D0022805D0086849
:100C600020F4C06040F480600860002070470128D4
:100C7000FBD0086820F4C06040F4007008600A48A7
:100C80000A4A0068B0FBF2F03222504300E0401EF6
:100C900010B14A695205FAD448694005E5D50320E8
:100CA00070470000007000401400002040420F0018
:100CB0000248006800F4C060704700000070004007
:100CC0002DE9F84F044600270088E54D3E46010512
:100CD00004F1200B1DD5606E78B1B0F5800F11D0F6
:100CE000B0F5000F04D0B0F5400F22D001270FE07F
:100CF000E86840F48030E8601BE00021201D00F02F
:100D00006DFF03E00021584600F0FEFF070010D001
:100D10003E462088C00426D5A06EC0B1B0F1807FC9
:100D20001AD0B0F1007F0DD0B0F1407F19D001276B
:100D300018E0D5F88800616E20F440000843C5F83B
:100D40008800E6E7E86840F48030E86009E00021C8
:100D5000201D00F043FF03E00021584600F0D4FFBF
:100D60000746F7B13E46206880033AD5A86D4FF09C
:100D70000008C00009D4A86D40F08050A865A86D97
:100D80004FF0010800F080500090DFF8D8A2DAF8A8
:100D9000001041F48071CAF80010FFF785FE81460B
:100DA00010E0D5F88800A16E20F040700843C5F827
:100DB0008800D8E7FFF778FEA0EB0900022801D9E8
:100DC000032705E0DAF80000C005F3D5002F7CD03A
:100DD0004FEA0706B8F1000F03D0A86D20F080504D
:100DE000A8652078C00707D0D5F88800A16B20F04F
:100DF00003000843C5F888002078800707D5D5F898
:100E00008800E16B20F00C000843C5F888002078CA
:100E1000400707D5D5F88800216C20F03000084342
:100E2000C5F888002078000707D5D5F88800616CE0
:100E300020F0C0000843C5F888002078C00607D518
:100E4000D5F88800A16C20F440700843C5F88800EC
:100E50002078800607D5D5F88800E16C20F4406042
:100E60000843C5F888002088800507D5D5F8880094
:100E7000E16D20F440200843C5F888002088400533
:100E800007D5D5F88800216E20F440100843C5F836
:100E900088002078400607D5D5F88800216D20F419
:100EA00040500843C5F888002078000607D5D5F8DB
:100EB0008800616D20F440400843C5F88800208810
:100EC000C00509D5D5F8880000E01CE0A16D20F42C
:100ED00040300843C5F8880020884FF00067800440
:100EE0004FF080684FD5D5F88800E16E20F0406063
:100EF0000843C5F88800E06EB8423CD1E86840F489
:100F00008010E8603FE0D5F8900010F4407015D0F4
:100F1000D4F88410814211D0D5F89000D5F8901003
:100F200020F4407041F48031C5F89010D5F890104D
:100F300021F48031C5F89010C5F89000C00710D09A
:100F4000FFF7B2FD074641F2883906E0FFF7ACFD36
:100F5000C11B494501D903263CE7D5F8900080071D
:100F6000F4D5D5F89000D4F8841020F440700843EC
:100F7000C5F890002EE7404505D10121201D00F065
:100F80002DFE00B106462068000317D5D5F888006D
:100F9000216F20F040600843C5F88800206FB842F8
:100FA00004D1E86840F48010E86007E0404505D1CE
:100FB0000121201D00F012FE00B10646206840030A
:100FC00017D5D5F88800616F20F040600843C5F858
:100FD0008800606FB84204D1E86840F48010E8608F
:100FE00007E0404505D10121201D00F0F7FD00B1CB
:100FF0000646208840041AD5D5F88800A16F20F055
:1010000040500843C5F88800A06FB0F1805F03D05E
:10101000B0F1005F05D00AE00221201D00F0DEFDE6
:1010200003E00221584600F06FFE00B1064620881A
:10103000000407D5D5F88800E16F20F08040084310
:10104000C5F888002068C00307D555F8880FD4F884
:10105000801020F0004008432860304600F004B8BB
:10106000001002400070004018BCBDE8E08F000096
:101070002DE9F0470F46050058D03E4E306800F08D
:101080000700B84209D2306820F0070038433060CA
:10109000306800F00700B84248D12878364CC007C5
:1010A0002CD06868032811D0022812D0216898B18A
:1010B000490500293ADAA16821F003010143A16042
:1010C000FFF7F2FC804641F2883910E0216889017F
:1010D000EFE721688903ECE78907EAE7FFF7E4FC1B
:1010E000A0EB0801494502D90320BDE8F087A068BC
:1010F000696800F00C00B0EB810FEFD12878800711
:1011000005D5A068A96820F0F0000843A060306809
:1011100000F00700B8420BD9306820F007003843D0
:101120003060306800F00700B84201D00120DCE7F1
:101130002878400705D5A068E96820F4E0600843F6
:10114000A0602878000706D5A068296920F46050BF
:1011500040EAC100A06000F05BF8A168074AC1F353
:101160000311515CC840064908600020FFF7B6FC37
:101170000020BAE70020024000100240702F000853
:10118000140000200F2202600C4A936803F003034E
:101190004360936803F0F0038360936803F4E063B3
:1011A000C36092684FF4E06303EAD202026104482C
:1011B000006800F00700086070470000001002405F
:1011C0000020024001480068704700001400002021
:1011D0000448054900688968044AC1F30221515C4A
:1011E000C84070471400002000100240B02F0008D3
:1011F0000448054900688968044AC1F3C221515C6A
:10120000C84070471400002000100240B02F0008B2
:1012100030B52D49002318468A682C4C12F00C0F6B
:101220004FEA640514D08A68C2F38102032A04D10C
:10123000CA6802F00302012A0AD08A68C2F3810256
:10124000012A19D08A68C2F38102022A16D016E058
:101250000A68120704D4D1F89420C2F3032202E0F2
:101260000A68C2F303121A4B53F822308A6812F04C
:101270000C0F04D1184602E0204600E028468A6898
:10128000C2F38102032A1DD1C868CA6800F00300B6
:10129000C2F30212521C022804D0032805D0B3FB6B
:1012A000F2F004E0B4FBF2F001E0B5FBF2F0CA6842
:1012B000C968C2F306225043C1F34161491C490089
:1012C000B0FBF1F030BD0000001002400024F4003B
:1012D000802F00082DE9F84304007DD02078FF4DD1
:1012E000C0065DD5A86810F00C0F0AD0A0690028D0
:1012F000286873D040F001002860FFF7D5FB064650
:1013000055E02868800702D5A0690028E5D0216A49
:101310002868000703D5286800F0F00004E0D5F83D
:101320009400F02202EA1010814216D9084600F01B
:101330006FFD002850D1286840F008002860286818
:10134000216A20F0F000084328606868E16920F411
:101350007F4040EA0120686015E0286840F00800FE
:1013600028602868216A20F0F00008432860686837
:10137000E16920F47F4040EA01206860206A00F0C3
:1013800047FD0028D6D1FFF743FFA968D44AC1F32F
:101390000311515CC840D34908600020FFF79EFB51
:1013A0002CE000BFFFF780FB801B02287ED8286856
:1013B0008007F7D5286840F0080028602868216A6F
:1013C00020F0F000084328606868E16920F47F405D
:1013D00040EA0120686011E0B2E0FFE720F0010080
:1013E0002860FFF761FB064605E000BFFFF75CFBE6
:1013F000801B0228DAD828688007F7D42078C00735
:1014000048D0A868C0F3810002281DD0A868C0F3A6
:101410008100032803D1E868C043800714D06068C6
:10142000B0F5803F17D0B0F5A02F286817D020F472
:1014300080302860286820F4802028606068E0B14F
:10144000FFF732FB064614E02868800322D5606867
:10145000002875D01EE0286840F48030EDE740F4A5
:1014600080202860F7E700BFFFF71EFB801B642881
:101470009CD828688003F7D50CE0FFF715FB0646DB
:1014800005E000BFFFF710FB801B64288ED828689A
:101490008003F7D42078800742D5A868C0F3810084
:1014A000012816D0A868C0F3810000E0A9E0032855
:1014B00004D1E86800F0030002280AD0E0680028A0
:1014C00028681DD040F480702860FFF7EDFA0646CA
:1014D0000BE0286840050BD5E0680028B9D007E08C
:1014E000FFF7E2FA801B022884D828684005F7D568
:1014F0006868217C20F0F85040EA016068600FE0E5
:1015000020F480702860FFF7CFFA064605E000BFA0
:10151000FFF7CAFA801B022873D828684005F7D461
:101520002078000729D560690028D5F8940013D0E9
:1015300040F00100C5F89400FFF7B6FA064606E051
:10154000FBE000BFFFF7B0FA801B022859D8D5F89E
:1015500094008007F6D510E020F00100C5F8940053
:10156000FFF7A2FA064604E0FFF79EFA801B022866
:1015700047D8D5F894008007F6D42078400763D583
:10158000A86D0026C00008D4A86D40F08050A86562
:10159000A86D012600F08050009053480168C905ED
:1015A00011D40168804641F480710160FFF77CFA34
:1015B000074604E0FFF778FAC01B022821D8D8F8C4
:1015C0000000C005F6D5A068012815D00528D5F87B
:1015D000900017D020F00100C5F89000D5F89000D9
:1015E00020F00400C5F89000A06841F28838C8B126
:1015F000FFF75AFA074610E0D5F8900040F00100D6
:10160000F0E777E040F00400C5F89000F4E700BF91
:10161000FFF74AFAC11B41456CD8D5F89000800706
:10162000F6D50CE0FFF740FA074604E0FFF73CFA76
:10163000C11B414579D8D5F890008007F6D41EB17A
:10164000A86D20F08050A865A06AE0B3A968C1F336
:101650008101032972D00228286820F08070286058
:1016600011D02868000106D42868800003D4E868F7
:1016700020F00300E860E8681C490840E860FFF7D4
:1016800013FA044654E0FFF70FFA064605E000BFE0
:10169000FFF70AFA801B022847D828688001F7D490
:1016A000206BE16A000110380843616BA26B0902EC
:1016B000120941EA42410843A18F0D4A490802EB51
:1016C0004151084300E036E094F840104908120107
:1016D00002EB41610843E86028680CE0001002401A
:1016E000702F00081400002000700040FFFFEEFE85
:1016F0000000E0FF19E040F080702860E86840F0EA
:101700008070E860FFF7D0F9044604E0FFF7CCF9F9
:10171000001B022809D828688001F7D50BE000BF1C
:10172000FFF7C2F9001B022802D90320BDE8F883A5
:1017300028688001F4D40020F8E7FFE70120F5E7EE
:101740004FF0E0210428086903D020F0040008616C
:10175000704740F00400FAE710B5401EB0F1807FFA
:1017600001D3012010BD4FF0E02460610F2160170C
:1017700000F024FA0020A06107202061002010BDA5
:1017800070477047704710B5040003D094F83D00CF
:1017900010B107E0012010BD002084F83C00204675
:1017A00000F00CF8022084F83D00211D206800F0B4
:1017B000EFFB012084F83D00002010BD70470000C1
:1017C0000168CA6842F00102CA600068826807497D
:1017D0000A40062A08D082680A40B2F5803F03D04A
:1017E000016841F00101016000207047070001001D
:1017F000704770B50446006801694FF00005C943A1
:10180000890715D4C168C943890711D4E91E01614C
:1018100001202077206880698007204602D0FFF7EA
:10182000E7FF04E000F0A7F8204600F0A5F82577D0
:1018300020680169C943490717D4C168C9434907EA
:1018400013D46FF0040101610220207720688069C1
:1018500010F4407F204602D0FFF7CAFF04E000F0FA
:101860008AF8204600F088F8257720680169C94386
:10187000090716D4C168C943090712D46FF00801DB
:101880000161042020772068C0698007204602D0CB
:10189000FFF7AEFF04E000F06EF8204600F06CF8B1
:1018A000257720680169C943C90617D4C168C943AF
:1018B000C90613D46FF01001016108202077206859
:1018C000C06910F4407F204602D0FFF791FF04E08A
:1018D00000F051F8204600F04FF8257720680169A4
:1018E000C943C90708D1C168C943C90704D1891EC2
:1018F0000161204600F042F820680169C9430906E9
:1019000009D4C168C943090605D46FF0800101619B
:101910002046FFF736FF20680169C943C90509D48D
:10192000C168C943090605D46FF48071016120467E
:10193000FFF726FF20680169C943490609D4C16839
:10194000C943490605D46FF040010161204600F00B
:101950001FF820680169C94389060BD4C168C943CF
:10196000890607D46FF0200101612046BDE8704070
:10197000FFF708BF70BD704770470000006803495B
:10198000884201D1FFF796B8704700000048014037
:10199000704710B5040003D094F8710010B107E04F
:1019A000012010BD002084F87000204600F026F8C9
:1019B000242084F871002068016821F00101016091
:1019C000204600F0D7FB0128EBD0606A10B120461A
:1019D00000F03EFB2068416821F49041416020689E
:1019E000816821F02A0181602068016841F00101CD
:1019F00001602046BDE8104000F08EBB00B50068D5
:101A00000E4987B0884216D10D48016E41F48041DD
:101A10000166006E694600F480400590C020009089
:101A200002200190002002900320039007200490E0
:101A30000448FEF753FF07B000BD00000038014026
:101A40000010024000040048FEE7000010B51149F4
:101A50008AB00F4808600846FEF75BFD00B1FEE75C
:101A60000024009401940294039422466946094894
:101A70000494FEF7C1FC00B1FEE710226946054858
:101A80000394FEF7B9FC002800D0FEE70AB010BDB1
:101A900000740040780000202DE9F04734483349B5
:101AA0000024C0E90014012505724472CE05802788
:101AB000C661C0E90875FEF757FE00B1FEE72C4885
:101AC0002A4954308031C0E9001405724472C6615D
:101AD000C0E90875FEF748FE00B1FEE72448234937
:101AE000A830E03902C04E0600F8045B4FF0200930
:101AF00040C08915E0E802944FF0040AE0E8024192
:101B00001C4FE0E8025A4FF00D0880E8B001184879
:101B1000A830FEF75DFD00B1FEE715481349E0303F
:101B2000C03902C000F8045B40C0E0E8039440F80C
:101B3000044C10C0E0E8024A80E8B0010C48E030F4
:101B4000FEF746FD00B1FEE701220B490848FEF70B
:101B5000E7FD00B1FEE70648012208495430FEF7D0
:101B6000DFFD002800D0FEE7BDE8F08700610140FE
:101B70008C00002080FBFFFF020001000400020037
:101B80000C4810B50A4901604FF4E1314160002171
:101B900081600C22C160C0E904128161C1610162EF
:101BA0004162FFF7F6FE002800D0FEE710BD0000FE
:101BB00000380140A4010020FEE770470907090E24
:101BC000002806DA00F00F0000F1E02080F8141D74
:101BD000704700F1E02080F8001470472DE9F041D3
:101BE000444C05468846E0680026810728680DD0E9
:101BF000E16801F00301814216D1A8B1E06869688B
:101C0000C0F30210401C88420ED120E0012804D00D
:101C1000022805D0032807D108E02168890701E0E0
:101C200021684905002907DB01265FE02168890357
:101C300002D421684903F5E7E1686A686FF00F0391
:101C400021F0730103EB021211430143E1602068AC
:101C500020F080602060FEF727FF074605E000BF08
:101C6000FEF722FFC01B022837D820680001F7D4F6
:101C7000B8F1000F18D0B8F1010F1ED0287D4FF039
:101C80007E41400801EB4060A96840EA01202169DB
:101C9000194A114008432061206840F080602060AC
:101CA000FEF702FF07461AE0A868E9680002090982
:101CB00040EA41402169114AEBE7288A104940086F
:101CC00001EB4050A96840EA012021690D4AE0E794
:101CD000FEF7EAFEC01B022801D9032606E02068B1
:101CE0000001F5D52069A969084320613046BDE8A7
:101CF000F081000000100240FF80FFF9FF80FDFF2F
:101D00000000E0FFFF809FFF2DE9F0413D4C0646BB
:101D10008846E0680025810730680DD0E16801F051
:101D20000301814216D1A8B1E0687168C0F30210C6
:101D3000401C88420ED120E0012804D0022805D0A2
:101D4000032807D108E02168890701E021684905D7
:101D5000002907DB012551E02168890302D42168AD
:101D60004903F5E7E16872686FF00F0321F0730132
:101D700003EB021211430143E160206820F0805020
:101D80002060FEF791FE074605E000BFFEF78CFEDF
:101D9000C01B022829D820688000F7D4B8F1000FB2
:101DA00015D0307C4FF07E41400801EB4060B168B7
:101DB00040EA01206169144A1140084360612068CB
:101DC00040F080502060FEF76FFE07460FE0B068DD
:101DD000F1680002090940EA414061690B4AEBE7FA
:101DE000FEF762FEC01B022801D9032506E0206829
:101DF0008000F5D560697169084360612846BDE8D7
:101E0000F081000000100240FF80FFF9FF80FDFF1D
:101E1000F8B51C4D06460024A86DC00002D5FEF79B
:101E200047FF0DE0A86D40F08050A865A86D00F058
:101E300080500090FEF73CFFA96D21F08051A9650C
:101E4000B0F5007F04D0802E07D94FF003040AE0DC
:101E5000802E08D9A02E01D804E001D1022402E08E
:101E6000702E00D101240848016821F007012143A8
:101E70000160006800F00700A04201D00120F8BD19
:101E80000020F8BD0010024000200240012000F0B8
:101E90004BFBFBE700F054BBF0B5B9B010200125B7
:101EA00000242290CDE9285402266020CDE92C653B
:101EB0002A9028200727CDE92E50CDE9307632969A
:101EC00022A8FFF707FA00B1FEE70F2033900320A6
:101ED000CDE934043694042133A83794FFF7C8F8C9
:101EE00000B1FEE715481994CDE9000520942020A3
:101EF000CDE90250C0020E94CDE90660CDE904762A
:101F00006846FEF7DDFE00B1FEE74FF40070FEF715
:101F10009DFE00B1FEE7FFF755F94FF47A71B0FB73
:101F2000F1F0FFF719FC0420FFF70AFC00220F2153
:101F3000501EFEF759FE39B0F0BD00000108010047
:101F40000D48016841F4700101600C48016841F0DE
:101F500001010160002181600268094B1A400260A2
:101F60008214C260026822F4802202608161024908
:101F7000C00380390860704788ED00E0001002401F
:101F8000FFFFF6EA0148FFF734BC00001C02002006
:101F90002DE9F0470268264B264D274E274F284C47
:101FA0004FF0804A984209D0504507D0A84205D04A
:101FB000B04203D0B84201D0A04204D122F0700C4C
:101FC0004A6842EA0C02DFF87CC0DFF87C80DFF868
:101FD0007C9098420FD050450DD0A8420BD0B04213
:101FE00009D0B84207D0A04205D0604503D0404593
:101FF00001D0484503D122F44075CA682A434D698F
:1020000022F080022A4302608A68C2620A68826201
:10201000984207D0A04205D0604503D0404501D08A
:10202000484501D10969016301214161BDE8F0879B
:10203000002C01400004004000080040000C00405B
:10204000003401400040014000440140004801408C
:1020500090F82410C90706D001684A68836A22F400
:1020600000321A434A6090F82410890706D50168A7
:102070004A68C36A22F480321A434A6090F82410F6
:10208000490706D501684A68036B22F480221A4387
:102090004A6090F82410090706D501684A68436B26
:1020A00022F400421A434A6090F82410C90606D56B
:1020B00001688A68836B22F480521A438A6090F820
:1020C0002410890606D501688A68C36B22F4005281
:1020D0001A438A6090F82410490611D501684A68AD
:1020E000036C22F480121A434A60016CB1F5801F20
:1020F00006D101684A68436C22F4C0021A434A6060
:1021000090F82410090606D501684A68806C22F40C
:10211000002202434A607047F8B50026044646672D
:10212000FEF7C2FC0546206800686FF07E47000796
:1021300008D52B4600224FF400112046009700F0EE
:1021400069F960B92068006840070AD52B4600226B
:102150004FF480012046009700F05CF908B103209D
:10216000F8BD202084F8710084F8720084F8706053
:102170000020F8BD2DE9F04104460168806823691C
:10218000E669184363691025002733431843954ACD
:102190000B68954E334003430B6020684168E36849
:1021A00021F44051194341602168A069914201D056
:1021B000236A18438B6823F4306303438B608B4B93
:1021C00021688B4899420DD1D0F8880010F00300A7
:1021D00006D001285AD0022856D0032859D157E0FA
:1021E000012556E0834B99420BD1D0F8880010F0BE
:1021F0000C0047D0042849D0082845D00C2848D1E5
:1022000046E07D4B99420BD1D0F8880010F03000A9
:1022100038D010283AD0202836D0302839D137E0AD
:10222000764B99420BD1D0F8880010F0C00029D02D
:1022300040282BD0802827D0C0282AD128E0704BF6
:1022400099420ED1D0F8880010F440701AD0B0F541
:10225000807F1BD0B0F5007F16D0B0F5407F18D13D
:1022600016E0914215D1D0F8880010F4406009D0F2
:10227000B0F5806F0AD0B0F5006F05D0B0F5406FB3
:1022800007D105E0002504E0022502E0042500E076
:1022900008255C4B00264FF4004091423DD135B1FA
:1022A000022D07D0042D07D0082D10D107E0FEF72E
:1022B0008FFF03E0184602E0FEF7AAFFA8B36268AA
:1022C00002EB4201814202D8B0EB023F01D9012763
:1022D00075E0DFF834815DB1022D0CD0042D13D0F0
:1022E000082DF4D150082905401846F1000105E0F9
:1022F000FEF76EFF0AE050084449F5E70023FDF7BA
:10230000CDFFA0F5407156E0FEF782FF6268010E36
:102310000302500818187141F0E7E1694FF6EF78B1
:1023200081422FD1092DD2D200E048E0DFE805F04C
:1023300006092005230505052600C8E7FEF748FF26
:1023400001E0FEF755FF4100D4F8040001EB500115
:10235000B1FBF0F080B2A0F110014145B7D84FF6C3
:10236000F0710140C0F3420001432068C16026E0E3
:1023700027496068EAE7FEF74BFFE4E74FF4803156
:102380006068E3E7092DA2D2DFE805F006091E0523
:102390002205050525009AE7FEF71AFF01E0FEF782
:1023A00027FF0146606801EB500100BFB1FBF0F070
:1023B00080B2A0F11001414589D82168C860266625
:1023C00038466666BDE8F081606803EB5001EDE7D2
:1023D000FEF71EFFE5E7616800EB5100B0FBF1F08E
:1023E000E6E7000000800040F369FFEF003801409D
:1023F000001002400044004000480040004C0040F3
:10240000005000400024F400FFFC0F00000024F402
:102410000048E8012DE9F041984617460E4604466B
:10242000069D1DE0681C1BD02DB1FEF73DFBA0EB07
:102430000800A84214D92068016821F4D071016015
:102440002068816821F001018160202084F87100FA
:1024500084F87200002084F870000320BDE8F08149
:102460002068C06936EA000004D00020B842D9D004
:102470000020F3E70120F9E7FEE702E008C8121F99
:1024800008C1002AFAD170477047002001E001C15D
:10249000121F002AFBD1704786B0FEF713FBFFF72F
:1024A000FBFC1A48C16C41F00101C164C16C01F030
:1024B00001010591C16C41F01001C164C16C01F0D2
:1024C00010010591C16C41F00201C164C06C00F0C3
:1024D00002000590FFF754FBFFF7DEFAFFF7B6FAAC
:1024E00000210B48FEF74AF810210948FEF746F88C
:1024F000142208496846FDF705FF0021684600F0F0
:1025000029F80549086000F016F8FEE700100240BF
:10251000780000205C2F0008000000200146002009
:10252000842900D0C81C704710B500B9012000F004
:10253000FDFA002010BD10B500F01EFB002010BDFC
:1025400010B500F037FC012803D0BDE8104000F0C2
:10255000EDBB10BD3EB504460D46B0F90800FFF7CF
:10256000DDFF02A9CDE90001208A2B4682B2D4E921
:10257000001000F0F1FB012801D000203EBD0298C0
:102580003EBD00002DE9F041184C0F460546E668B7
:102590002068001D00F014FA38B9206890F82C105B
:1025A00001208840216981432161681C07D137B12E
:1025B0002168BDE8F0410E48091D00F039BA2068D5
:1025C0003544B5424560216805D2A06BBDE8F041B5
:1025D000091D00F015BA606B091D00F011FAA06A20
:1025E000854200D2A562BDE8F08100003C000020D9
:1025F000100F00202DE9F041054600F025FA2E4C81
:10260000A068401CA06020682C4F10B1606940B3E6
:102610002DE02560A068012829D1002606EB860060
:1026200007EB800000F0DEF9761C072EF6D3234876
:102630008C3000F0D7F92148A03000F0D3F91F48C2
:10264000B43000F0CFF91D48C83000F0CBF91B487A
:10265000DC3000F0C7F919488C3060631430A06397
:1026600005E02068E96AC06A884200D82560606A8F
:10267000401C6062E96A01202269884010432061A1
:1026800001EB810007EB8000291D00F0D1F900F07B
:10269000FBF9606900280CD02068E96AC06A8842AA
:1026A00007D207494FF080500860BFF34F8FBFF348
:1026B0006F8FBDE8F08100003C000020340E002048
:1026C00004ED00E070B5114E114C17E000F088FAEF
:1026D0003068B8B100F0E0FB00F0B6F9F068C5680A
:1026E000281D00F06DF9A068401EA0606068401EC3
:1026F000606000F0C9F9284600F00CF86068002816
:10270000E4D170BD00F0C8FBF8E70000FC0E00202B
:102710003C00002010B50446006B00F0C9F92046CB
:10272000BDE8104000F0C4B90F4840F6B831420788
:1027300005D0C01D0C4A20F00700821A891A0B4AE6
:1027400000230144C2E900030839103A21F00701CF
:1027500011604B600B600B1AC0E9001393604FF0DF
:1027600000405360D06070477C02002028000020A9
:10277000074C4FF08056074DFFF7A4FF2068012853
:10278000FAD92E60BFF34F8FBFF36F8FF4E70000CD
:10279000340E002004ED00E02DE9F0479A46DDE913
:1027A000098481466FF00303206B03EB820210441F
:1027B000089D20F00706700707D0502080F311888D
:1027C000BFF34F8FBFF36F8FFEE723180A5C83F8C8
:1027D00034200A5C12B1401C1028F6D3002784F87C
:1027E0004370072D00D30625E562C4E91157201D6B
:1027F00000F003F904F1180000F0FFF82461C5F1BE
:1028000007006462A061E76484F85070524649464C
:10281000304600F0BFF82060B8F1000F01D0C8F8D2
:102820000040BDE8F087000030B5114900E01146D6
:102830000A688242FBD34B685C18844203D140682B
:1028400018444860084643681C18944209D1084C53
:10285000103C2468A24209D052681A4442600A68B7
:1028600012680260814200D0086030BD0460F9E760
:10287000280000200648416B096829B1416BC968EE
:10288000C9684968816270474FF0FF31FAE700007C
:102890003C00002008484068401C4FF0500080F386
:1028A000118804D0BFF34F8FBFF36F8FFEE7BFF3E4
:1028B0004F8FBFF36F8FFEE7300000202DE9F0410E
:1028C0000546002700F08CF9314E306808B9FFF753
:1028D0002BFFF06805424BD1C5B3083568070ED011
:1028E00005F00700C0F108000544680707D0502034
:1028F00080F31188BFF34F8FBFF36F8FFEE72DB3C7
:102900007068854234D82248103001460C6801E0D6
:1029100020460C466168A94202D221680029F7D1FD
:1029200031688C4224D007682168016060680837EC
:10293000411B10290FD96019420708D0502080F39D
:102940001188BFF34F8FBFF36F8FFEE710E0416038
:102950006560FFF769FF61687068401A7060B2686F
:10296000904200D2B060F06801430020C4E9000149
:1029700000F092FA780707D0502080F31188BFF357
:102980004F8FBFF36F8FFEE73846BDE8F081000040
:102990001800002010B5031F4FF080741C601B1F2F
:1029A00021F001011960191F044B0B6014390A60F2
:1029B000091F6FF0020244380A6010BD9528000814
:1029C000D0E9013201699A60D0E901235A604A686E
:1029D000824201D182684A60002202610868401E7A
:1029E0000860704700F108014FF0FF32C0E90112A2
:1029F000C1600161002101607047002101617047E1
:102A000030B50B685A1C02D000F1080202E00269DE
:102A100004E02246546825689D42FAD953684B6009
:102A200099608A60516008610168491C016030BD8D
:102A300042684A6093688B6093685960916008614E
:102A40000168491C01607047502080F31188BFF372
:102A50004F8FBFF36F8F0A494868401C48600128B8
:102A60000CD10848006810F0FF0F07D0502080F309
:102A70001188BFF34F8FBFF36F8FFEE770470000E1
:102A80003000002004ED00E00849486828B1401EED
:102A9000486001D180F311887047502080F311887D
:102AA000BFF34F8FBFF36F8FFEE7000030000020B1
:102AB00070B5002827D0144DA0F108046168E868BB
:102AC000014207D1502080F31188BFF34F8FBFF32D
:102AD0006F8FFEE722683AB1502080F31188BFF370
:102AE0004F8FBFF36F8FFEE78143616000F078F88E
:102AF00060686968084468602046FFF795FEBDE895
:102B0000704000F0C9B970BD1800002006484FF4AD
:102B10007A710068B0FBF1F14FF0E020491E41618D
:102B200007210161704700001400002010B5020069
:102B300014D00F48006B38B1502080F31188BFF3D8
:102B40004F8FBFF36F8FFEE700F04AF80021104669
:102B5000FFF718FD00F0A0F9002807D105494FF054
:102B600080500860BFF34F8FBFF36F8F10BD000020
:102B70003C00002004ED00E01CB515480024CDE920
:102B800000402346802213A1144800F0E5F80128F4
:102B900009D0401C1AD1502080F31188BFF34F8F09
:102BA000BFF36F8FFEE7502080F31188BFF34F8F84
:102BB000BFF36F8F06484FF0FF312C38816201213F
:102BC0004161C460BDE81C4000F040B81CBD00007D
:102BD0006800002049444C450000000071270008AF
:102BE0000248016B491C0163704700003C00002053
:102BF0001448016B11B10121C16170470021C1610D
:102C00000169B1FA81F1C1F11F0101EB81020E49A5
:102C100051F822306BB101EB820101F108034A68DF
:102C200052684A609A4201D152684A60D168016094
:102C30007047502080F31188BFF34F8FBFF36F8F21
:102C4000FEE700003C000020340E00201CB5324896
:102C50000168324A914207D1502080F31188BFF3B6
:102C60004F8FBFF36F8FFEE700682C49491E8842E3
:102C700007D1502080F31188BFF34F8FBFF36F8FC0
:102C8000FEE7274908780190FF20087008788DF842
:102C900000009DF800009DF8002000F0F000904238
:102CA00007D0502080F31188BFF34F8FBFF36F8F91
:102CB000FEE79DF800001B4A00F05000107007204E
:102CC000906005E09DF800305B008DF80030401EFC
:102CD0009DF800301B06F5D4000200F4E06090601F
:102CE000019808700C482030016841F470010160BF
:102CF000016841F070410160FFF708FF002050605B
:102D0000FDF76CFA0848016841F040410160FDF7A9
:102D100055FA00201CBD000000ED00E071C20F411B
:102D200000E400E03000002034EF00E010B5502057
:102D300080F31188BFF34F8FBFF36F8F00F048F817
:102D400018B104494FF080500860002080F31188CA
:102D500010BD000004ED00E02DE9FF5F8346DDE9D2
:102D60000E87994616468A469000FFF7A7FD050094
:102D70001AD05420FFF7A2FD040012D025630021D1
:102D8000CDE90241CDE900874B46324651465846CF
:102D9000FFF702FD2046FFF72DFC012004B000F0F4
:102DA00006B82846FFF784FE4FF0FF30F6E730BC48
:102DB000BDE8C09F0548416919B1006B18B10020FA
:102DC0007047012070470220704700003C0000203F
:102DD0002DE9F0412E4C0027206B40B1A069401C2A
:102DE000A061E06900B101273846BDE8F081E668DE
:102DF000761CE66013D1606B006838B1502080F318
:102E00001188BFF34F8FBFF36F8FFEE7606BA16B2D
:102E10006163A063206A401C2062FFF72BFDA06A5B
:102E2000DFF87080864209D3606B006880B1606B08
:102E3000C068C568686886420DD2A0622068C06A12
:102E400000EB800158F821000128CAD90127C8E702
:102E50004FF0FF30F1E7281DFFF7B2FDA86A18B167
:102E600005F11800FFF7ACFDE86A012122698140F5
:102E70001143216100EB800108EB8100291DFFF760
:102E8000D7FDE86A2168C96A8842CDD30127CBE71C
:102E90003C000020340E00202DE9F0472C4D00248A
:102EA0002746286B38B1FFF7CFFD286B401E2863FB
:102EB000286B40B146E0502080F31188BFF34F8F5C
:102EC000BFF36F8FFEE7A968224E0120D1B3A6F1B0
:102ED000B40980463068E8B1F068C46804F11800AD
:102EE000FFF76EFD201DFFF76BFDE06A2A6908FA07
:102EF00000F11143296100EB800109EB8100211DE4
:102F0000FFF796FDE06A2968C96A8842E2D3C5F8EE
:102F10001C80DFE70CB1FFF7ADFCAC6944B146465D
:102F2000FFF756FF00B1EE61641EF9D10020A861E1
:102F3000E86938B10849012738070860BFF34F8FA7
:102F4000BFF36F8FFFF7A0FD3846BDE8F0870000A4
:102F50003C000020E80E002004ED00E0B82F00083F
:102F60008D1E00080000000000000000800000002E
:102F70000000000000000000010203040607080929
:102F8000A0860100400D0300801A060000350C00E9
:102F900040420F0080841E0000093D0000127A00AC
:102FA0000024F40000366E010048E801006CDC02E9
:102FB000000000000102030464656661756C7454CE
:102FC00061736B00E42F000800000020780000000F
:102FD0007A2400085C30000878000020B01200005D
:102FE0008A2400080000000000000000000000002B
:102FF000000000000000000000093D00000000008B
:1030000000000000000000000000000000000000C0
:103010000000000000000000AAAAAAAA0000000008
:1030200000000000000000000000000000000000A0
:103030000000000000000000000000000000000090
:103040000000000000000000000000000000000080
:0C30500000000000000000000000000074
:040000050800018965
:00000001FF
